:020000040000FA
:1000000000003AEF0BF000001CBE46EF09F0700E46
:1000100066EF03F000000000FAD741435420414C42
:10002000455254004F4244494920746F2052533284
:10003000333220496E7465727072657465720000A7
:100040004255464645522046554C4C004255532099
:10005000425553590000425553204552524F5200C9
:1000600042555320494E49543A20000043414E2006
:100070004552524F52003C44415441204552524F48
:100080005200454C4D3332372076312E34003F003C
:100090004642204552524F520000554E41424C4577
:1000A00020544F20434F4E4E454354004E4F204462
:1000B000415441004F4B00003E00534541524348DC
:1000C000494E472E2E2E000053544F5050454400A9
:1000D0003E4154204D4100003C5258204552524F61
:1000E00052004C5620524553455400000000FFFF7B
:1000F000303132333435363738394142434445465E
:10010000F9265A00D16BFF0049002FEF0CF0440094
:10011000D9EF01F00000414C1788F3D0415250EF65
:1001200006F0424455EF06F0424962EF06F04353B1
:1001300030EF07F04430189AE4D04431188AE1D007
:100140004450A6EF07F045301794DBD045311784B3
:10015000D8D04645D26BD5D0464988EF08F0483014
:100160001792CFD048311782CCD04A453594C9D0A8
:100170004A533584C6D04B57E4EF08F04C30179EF5
:10018000C0D04C31178EBDD04C5002EF09F04D302D
:10019000179AB7D04D31178AB4D04D4153EF09F0BB
:1001A0004E4C1798AED0504376EF09F05230179668
:1001B000A8D052311786A5D052443DEF0AF05256CE
:1001C0004BEF0AF0533018809CD05331189099D0DF
:1001D0005349C7EF0AF05353108A93D05630359ADB
:1001E00090D05631358A8DD0575338EF0BF04031CF
:1001F0001EEF06F0403221EF06F000000000000084
:10020000F92641540FEF06F04345BBEF06F0444D8D
:1002100097EF07F0445013EF08F04947C8EF08F094
:100220004B57DBEF08F0505000EF0AF0525443EF09
:100230000AF05350E7EF0AF05450E7EF0AF00000DD
:100240004341AEEF06F04346D6EF06F04350F9EFD8
:1002500006F049428CEF08F04946AAEF08F04D52EB
:1002600063EF09F04D5467EF09F05241CFEF0AF008
:100270005350FFEF0AF05441E3EF0AF05450FFEF00
:100280000AF05344A7EF0AF05352CFEF0AF0535449
:10029000D3EF0AF05357D9EF0AF0000042526CEF47
:1002A00006F04346C0EF06F0434DE3EF06F043454A
:1002B000ABEF0AF049499CEF08F05348BCEF0AF055
:1002C0000000435201EF07F0435659EF07F04D503D
:1002D00057EF09F050426DEF09F0505079EF09F0F7
:1002E0000000505083EF09F000004D505CEF09F022
:1002F00050508FEF09F05348B3EF0AF000000000B0
:10030000F9264FEF07F04346C9EF06F0434DECEFF7
:1003100006F00000435212EF07F00000403339EFBF
:1003200006F000004155544F0000534145204A312A
:100330003835302050574D00534145204A3138352B
:1003400030205650570049534F20393134312D3227
:10035000000049534F2031343233302D3420284BA4
:100360005750203542415544290049534F203134DC
:100370003233302D3420284B5750204641535429D6
:10038000000049534F2031353736352D3400534165
:1003900045204A31393339005553455231005553C0
:1003A00045523200202843414E200000455252372A
:1003B000310017AE03D00FEC05F0A3D70FEC05F01A
:1003C00092EC03F09ED72F6A306A030E7A6FE80E24
:1003D0007B6F71EC05F07DC044F0000901E0FF0C7B
:1003E0007A6F640E7B6F71EC05F07DC030F044C015
:1003F0002FF07D6B0A0E7D2B325EFDE232267D05ED
:10040000316E000C3F6E3F6630D1120072A39EAA7F
:1004100032D072B131D0206A8A98AB50060B2DE1F0
:10042000E9CF41F074C0E9FFAE50EF6E17A421D0C0
:10043000E66EE290E150D9181BE08B51EF1822E0F4
:10044000200EEF6422D072AF08D0710EE9600CD09C
:10045000E928746F41C0E9FF000C500E726FE92863
:10046000746F41C0E9FF000C728D41C0E9FF000CC0
:10047000C5D100D0E2D700D0ECD0AB98AE5000D0C0
:10048000AB88A8D072811CAE8B8A41C0E9FFA3EF74
:1004900005F094EC05F081BE1200680E936EFC0E20
:1004A0008A6E9FEC05F081BE1200E80E936ECD6956
:1004B000300E416E0C0E0109746E7F84426A436AED
:1004C0007368550E7E6EAA0E7E6E7F82432EFED717
:1004D000422E03D0810ED16FFF007FB2F7D7742A6E
:1004E000742A412EEBD77F943C0E416EE80E936E3A
:1004F000414E19D0EC0E8A6E95EC05F0FC0E8A6E1A
:1005000093EC05F0680E936EFC0E8A6E9FEC05F07E
:1005100081AEECD7E80E936E080E416E95EC05F0B7
:10052000412EFCD71200640EF8D7426E470E42608F
:10053000FF0C400E426402D0370E07D03A0E4260E4
:10054000FF0C2F0E4264FF0C300E425C12000000C4
:100550001BAE33D0030E006412D011B80ED015506C
:10056000026204D0800E11BC100E30D00318100EA1
:10057000D8B411AA800E1B6E2CD0100E24D017A256
:1005800020D0006011D000A208D015500218600ED3
:10059000D8B411AC800E1B6E1200002C0AD0800E55
:1005A00011B8100E1B6E120015500318700ED8B43F
:1005B00011AA800E1B6E000012001B50A4EC05F067
:1005C00001D0800E0000000000D00000000000D02C
:1005D0001B6E12001A66D6BE22D01ABE10D01D2A7B
:1005E0001DB68A8E1E2A1EB68A8C1F2A1FB68A8ABC
:1005F000202A20B68A88000000001A6A12002B2EDA
:100600000DD0050E2B6E2A2A86512A602C8C212AA9
:100610007F5121600F82198A1A9E1200F5D70000BF
:100620009EBA198ED6BE1A660AD01A683C663C0677
:10063000000000D0000000009EBA198E1200E150A8
:10064000D9629EA8F7D71F6A8A9ADE50DA90AD6EFB
:100650001200A3EC05F0BED700D8AB50060BD8A40F
:10066000AB98D8A4AB88AE501200FC6A010E3F6272
:1006700002D034EF0CF01998020E3F6202D09A0EAD
:1006800020D0030E3F6202D0900E1BD0040E3F62BA
:1006900002D04C0E16D0050E3F6202D0560E11D07D
:1006A000060E3F6202D06C0E0CD0FF0E3F6202D0ED
:1006B000DC0E07D0080E3F6206D011BE34EF0CF0FE
:1006C000AC0E30EF0CF0740E3F62F2D73F6EFC6A56
:1006D000E1CFD9FF8A9A17D88B5114D88A5117BE07
:1006E00011D8450E0FD8520E0DD8520E0BD8F76AFE
:1006F000F86A3F380ED806D83F500BD803D88A8AFC
:1007000032EF0CF0AD6E416A9FEC05F0412EFCD744
:100710001200F009F66E0800F5501200FADF69D0F9
:100720003A0E67D08B5165D817AE12008A5161D04E
:10073000F66E0900F550D8B412005BD89EA8F9D720
:100740001F6A8A9ADE50DA90AD6EF3D718A02DD0CA
:100750002CD84ED0A2EC05F000D00000A2EC05F0A1
:1007600039D7E150D9184AE0000012001B9C72B73B
:10077000F3D70138F009F66E0800F550E66EE29006
:10078000E150D9183BE00000015027D01B9A72B706
:10079000E4D70238F009F66E0800F550E66EE290F4
:1007A000E150D9182BE0025019D00E6E08D01BBEB4
:1007B000D1D71BBCDBD71BBAE9D71BA8CDD71B9859
:1007C00072B7CCD70E38F009F66E0800F550E66E19
:1007D000E290E150D91812E00E500000F009F66ED8
:1007E0000800F550E66EE290E150D9621850B9D792
:1007F000200EE66EE290E150D9621200FC6AFC0E17
:1020000007D059EC1EF060B606EC1FF04FEC1EF046
:1020100019AE000C010C17B60FAA7287B8D73D662F
:1020200003EC11F0B50E3E162C9E2C98976B836B2B
:10203000000C3DC041F0414E30D1414E9BEF13F0BA
:10204000414EC4EF15F0414E51EF18F0414E51EFA3
:1020500018F0414E20EF19F0414E20EF19F0414E9B
:1020600020EF19F0414E20EF19F0414E20EF19F00A
:10207000414E20EF19F0414E20EF19F0740C3DC095
:1020800041F0414E11D1414EA2EF13F0414EC1EF4C
:1020900015F0414E4EEF18F0414E89EF18F0414EC9
:1020A00016EF19F0414E4DEF1FF0414E58EF1FF063
:1020B000414E63EF1FF0414E6EEF1FF0414E79EF3E
:1020C0001FF0414E84EF1FF0740C2D983DC041F07D
:1020D000414E11D1414ECAEF13F0414E66EF17F059
:1020E000414E66EF17F0414E66EF17F0414E18EF84
:1020F00019F0414E50EF1FF0414E5BEF1FF0414E83
:1021000066EF1FF0414E71EF1FF0414E7CEF1FF064
:10211000414E87EF1FF0740C3DC041F0414EEED0B0
:10212000414ECCEF13F0414ED7EF16F0414EF7EF92
:1021300018F0414EF7EF18F0414ECEEF19F0414E36
:10214000CEEF19F0414ECEEF19F0414ECEEF19F01F
:10215000414ECEEF19F0414ECEEF19F0414ECEEF89
:1021600019F0740C3DC041F0070E416411D0415E7E
:10217000414E54EF1AF0414E54EF1AF0414E54EFD5
:102180001AF0414E54EF1AF0414E54EF1AF0740C0D
:10219000414ED6D0414EE2EF13F0414EEDEF16F036
:1021A000414EEDEF16F0414EEDEF16F0414E54EF7B
:1021B0001AF0414E54EF1AF0740C3DC041F0414EFC
:1021C00049D1414E84EF14F0414E03EF17F0414ED8
:1021D00003EF17F0414E03EF17F0414EBCEF1AF03A
:1021E000414EBCEF1AF0414EBCEF1AF0414EBCEF2D
:1021F0001AF0414EBCEF1AF0414EBCEF1AF0414EBE
:10220000BCEF1AF0740C3DC041F0414E1FEF13F0CB
:10221000414EA6EF15F0414E66EF17F0414E66EFC6
:1022200017F0414E66EF17F0414ECCEF1DF0414ED6
:10223000CCEF1DF0414ECCEF1DF0414ECCEF1DF028
:10224000414ECCEF1DF0414ECCEF1DF0414ECCEF96
:102250001DF0740C3DC041F04166414E1200414EEC
:102260001200414E1200414E1200414E1200414EEA
:102270001BEF19F0414E53EF1FF0414E5EEF1FF080
:10228000414E69EF1FF0414E74EF1FF0414E7FEF5A
:102290001FF0414E8AEF1FF0740C610E126E6A0E31
:1022A000136E9451146E120026D819BE010CEAEC7C
:1022B00002F03C66FAD70FA84DEC11F019AC02D031
:1022C0003E8C000C010E046E056A020E006E7CEC62
:1022D0000FF06DEC05F088EC0FF06DEC05F0190EC9
:1022E0007E617E510FAC190E0BEC10F072976DEC05
:1022F00005F0190EE6D589948B9610D2FF0E406E2C
:10230000610E3EA81250EE6E41EC13F06A0E3EA82C
:102310001350EE6E41EC13F094513EA81450EE6E43
:1023200041EC13F0EE5041EC13F0EAEC02F0422ED7
:10233000F9D7401CEF6E040E002619BE010C000CEC
:102340007A0E89EC05F0040E926F0FB2040C000EA9
:10235000EA6E010EE96E82B40CD0090E416EEAEC11
:1023600002F00FB2040C18AC416A414E050C82A475
:10237000F6D73A0E416E82A4F0D7412EFCD719BE93
:10238000010C100E416E414E02D082B4FCD78984FC
:102390008B868A9E1D6A080EAEEC05F082A403D0DF
:1023A00089948B96030C140EADEC05F089948B96F2
:1023B0000000A0EC05F00050426EEAEC02F0A3EC45
:1023C00005F0A1EC05F0EE5006EC12F03F6E3F6612
:1023D00003D0422EF6D7000C8F6B906B446A82506C
:1023E000040B8F1912E08F1B903D902B442EF7D7D2
:1023F000050E906102D0924F050C446AA7EC05F0DF
:1024000019BE010C442EFAD7A0D7F0D789848B8649
:10241000436E080E446EEAEC02F04336D8A009D0B1
:1024200089948B96EAEC02F082A4090CA3EC05F0E7
:1024300009D0EAEC02F0A2EC05F0000089948B963A
:10244000A4EC05F0444E000CEAEC02F089848B8683
:102450000000E1D7800E1B6EFF0E406E000EEA6E8C
:10246000010EE96E0F9482A43ED000009EBA198E30
:1024700019BE010C0FB262D082A435D0D6BE1A6844
:102480001A66D6BE22D082A42ED02B2E03D0050EE3
:102490002B6E2A2A865182A426D02A602C8C212ACF
:1024A0007F5121600F821A9E82A41DD01D2A1DB665
:1024B0008A8E1E2A1EB68A8C82A415D01F2A1FB6A9
:1024C0008A8A202A20B68A881A6A82A40CD0E1500F
:1024D000D9629EA8C8D782A406D01F6A8A9ADE5005
:1024E000DA90AD6EC0D786512A602C8C1E6A8A9C09
:1024F00000D0110E416E82B4B6D7412EFCD70B0E20
:10250000416E82B420D0412EFCD7EAEC02F0EAEC16
:1025100002F082B4A8D718AC07D03EA6050C560E20
:1025200098EC03F092EC03F082B49DD71E6AEAECBB
:1025300002F019BE010C3EA60FA2F6D73EA6080C6B
:10254000216A0F9287D72128826F9FEC05F0EAEC71
:1025500002F0006A86D8A7EC02F09FEC05F072D872
:102560009DEC05F07ED8D7EC03F06CD89DEC05F01F
:1025700078D8D7EC03F066D89DEC05F072D8D7EC8C
:1025800003F060D89DEC05F06CD8EAEC02F09FEC0B
:1025900005F058D89DEC05F064D8EAEC02F09FEC09
:1025A00005F050D89DEC05F05CD8EAEC02F09FEC09
:1025B00005F048D89DEC05F054D8EAEC02F0002A6A
:1025C0001B880F940D0EE9600F840F8617B806D094
:1025D0000B0E11B40C0E00620F9606D019AE0F96BA
:1025E0000052D8A40F960000A4EC05F02BD8A2EC62
:1025F00005F000000F90C40E40620F8071510FA4CF
:10260000EE6E0E6E0FA6A6D7EAEC02F0EAEC02F030
:102610001BBE20D711B4000C10B20ED00F50000C0E
:1026200001B6000CEAEC02F0EAEC02F0945110A4BE
:10263000145006EC12F0000C1050F4D7000C8994E2
:102640008B966CD0718F714782A471911D0ED890BA
:10265000403604E271B1401A0000000C71A1401A2A
:10266000000C050E416E82A4000C414E03D082A4E2
:10267000000CF9D7060000D0006608EF13F02AEF2F
:1026800012F0446E1D0ED890403603E244BE401A4C
:1026900003D044AE401AD890403603E244BC401AFE
:1026A00003D044AC401AD890403603E244BA401AF2
:1026B00003D044AA401AD890403603E244B8401AE6
:1026C00003D044A8401AD890403603E244B6401ADA
:1026D00003D044A6401AD890403603E244B4401ACE
:1026E00003D044A4401AD890403603E244B2401AC2
:1026F00003D044A2401AD890403603E24450401A16
:1027000003D044A0401A00000F90C40E40620F8016
:102710001200020E3D6202D0020E01D0000E8E1990
:1027200004E189A2000C899203D089B2000C89824D
:102730003B503C6E000C680E126E6A0E136E945184
:10274000146E120027D819BE010CEAEC02F03C66A8
:10275000FAD70FA89BEC13F019AC02D03E8C000CFA
:10276000010E046E056A020E006E7CEC0FF06DEC3B
:1027700005F088EC0FF06DEC05F0190E7E617E51CE
:102780000FAC190E0BEC10F072976DEC05F0190EF2
:1027900061EF0FF08994C0D7FF0E406E680E3EA81F
:1027A0001250EE6E41EC13F06A0E3EA81350EE6E1E
:1027B00041EC13F094513EA81450EE6E41EC13F02E
:1027C00092EF11F07A0E89EC05F0040E926F0FB2C1
:1027D000040C000EEA6E010EE96E82A013D0416A6D
:1027E000EAEC02F00FB2040C82A00CD0EAEC02F08A
:1027F00018AC416A414E050C82A004D0EAEC02F00C
:102800008250EED7DF0E416E8250E9D7412EFCD7C1
:1028100019BE010C100E416E414E02D082A0FCD7B1
:1028200089848A9E1D6AA9EC05F0825002D08994A1
:10283000030C170E416EEAEC02F0000000000000ED
:10284000412EF9D70050426EEE5055EC14F03F6E19
:102850003F660FD0080E416EEAEC02F00000412EF8
:10286000FBD7A1EC05F0422EEFD7A4EC05F089943C
:10287000000C8F69916B446AEAEC02F08250010B04
:102880008F1912E08F1B913D912B442EF5D7050E29
:10289000916102D0924F050C446AA7EC05F019BE75
:1028A000010C442EFAD793D7F0D78994436E040EC7
:1028B000446E0000A8EC05F08250090CA8EC05F06D
:1028C0004336D8A009D0A8EC05F08250090CA8EC3A
:1028D00005F0A0EC05F00000000089844336D850D4
:1028E00007D0A8EC05F0A8EC05F09EEC05F0000080
:1028F000444E000CA8EC05F0A8EC05F0A4EC05F0A3
:10290000000089940000D5D7800E1B6EFF0E406E2C
:10291000000EEA6E010EE96EEAEC02F00FB233D05F
:1029200019BE010C82A0F8D7820E416E8A9C1E6AE5
:1029300082A0F2D7412EFCD73D0E50EC15F00009D5
:1029400027E0416A82A0E8D7EAEC02F082A0E4D74F
:10295000EAEC02F082A0E0D7EAEC02F0412EF2D7D6
:1029600018AC07D03EA6050C560E98EC03F092EC7E
:1029700003F082A0D1D71E6AEAEC02F019BE010C66
:102980003EA60FA2F6D73EA6080C216A0F92BCD72E
:102990002128826F006A716BAAEC05F0A3EC05F0A8
:1029A000719F9EEC05F09FEC05F0A8EC15F0000976
:1029B00006E0A8EC15F00009D8A48BD0718F718DBA
:1029C000A7EC02F0AAEC05F09FEC05F0AFEC15F0D7
:1029D000000906E0AFEC15F00009D8A4A6D0719D5F
:1029E000719BD7EC03F0D7EC03F09FEC05F0A0EC63
:1029F00005F0A8EC15F0000906E0A8EC15F00009B8
:102A0000D8A498D0718B7189D7EC03F0AAEC05F0AB
:102A1000AFEC15F0000906E0AFEC15F00009D8A402
:102A20008CD071997197A9EC05F09FEC05F0A8EC9A
:102A300015F0000906E0A8EC15F00009D8A47ED036
:102A400071877185A9EC05F09FEC05F0AFEC15F0EE
:102A5000000906E0AFEC15F00009D8A470D071951C
:102A60007193A9EC05F09FEC05F0A8EC15F00009B6
:102A700006E0A8EC15F00009D8A462D0718371813A
:102A8000A9EC05F09FEC05F0AFEC15F0000906E0AD
:102A9000AFEC15F00009D8A454D07191B6EC15F044
:102AA0000F8617B806D00B0E11B40C0E00620F96ED
:102AB00006D019AE0F960052D8A40F96000000D091
:102AC0000FA66ED7150E416EEAEC02F0412EFCD730
:102AD00000001BBE19D711B4000C10B223D00F5048
:102AE000000C01B6000C040E416E00D0EAEC02F0BE
:102AF000A4EC05F0412EFAD78984090E416EEAEC68
:102B000002F0412EFCD7A2EC05F0945110A4145011
:102B100055EC14F0A8EC05F0A8EC05F0A4EC05F0D9
:102B20008994000C1050DFD7000C719DD7EC03F096
:102B3000D7EC03F0719BD7EC03F071997197719505
:102B400071937191B6EC15F00F80C3D71FEF13F09E
:102B5000340E416E8250000C412EFCD7FF0C340E17
:102B6000416E82A0000C412EFCD7FF0C002A1B886E
:102B70000D0EE95C7151D8A0EE6E0E6E41EC13F0B3
:102B8000120019BCDCD038D00FB806D0680E126E17
:102B90006A0E136E9451146E2CBA1200060E226E39
:102BA000680E236E246E020E2264120024C025F0EB
:102BB0006A0E246E2526030E2264120025C026F01C
:102BC0009451256E2626040E2264120026C027F09A
:102BD000010E266E2726050E2264120027C028F05B
:102BE000000E276E2826060E2264120028C029F047
:102BF000000E286E29261200600E2DAE3EAE98EC17
:102C000003F08D914B0ED2EC17F06DEC05F019BE70
:102C1000010CBF510E6E016E006A002A090E416E52
:102C200014D02DAE3EAE03D09EEC05F00BD0414C3F
:102C300006D0040E411803E0070E411803E12E0EE2
:102C4000F9EC03F00E32D8500DD08A9E030E8A1292
:102C50001D6A9DEC05F09DEC05F082A207D0FC0EEC
:102C60008A16030CFC0E8A1629EC03F0640E436EE0
:102C7000426AEAEC02F000D0422E01D0432EF9D78E
:102C8000AB0E426E29EC03F0422EFCD719AE03D0F6
:102C9000FC0E8A16010C412EC4D7EAEC02F0FC0EA1
:102CA0008A16640E426EEAEC02F0412E01D0422EEA
:102CB000FAD72D8A7287E60E6AEC17F072976DECE0
:102CC00005F07151026E002A550E021803E0FF0E46
:102CD0006DEC05F072872D0E2DB2870E6AEC17F0A1
:102CE00072976DEC05F07151036EC06F002A728708
:102CF0002D0E2DB2870E6AEC17F072976DEC05F071
:102D00007151046EC16F002A8D81030E3D622ED079
:102D10002DAE2DBC09D00350046226D0080E031836
:102D200003E0940E036220D060D96DEC05F0040E30
:102D30003D6205D03EA822EC04F0030E3D6EC4ECCB
:102D400015F02A6A2C9C050E2B6E3E8C2C8E19BC1D
:102D5000000C11862DBE02D03EBE000CB40E98ECC5
:102D600003F092EC03F0000C3EAEFF0C2DAE2DBC38
:102D700003D08F0E04620FD038D96DEC05F0030E2E
:102D80003D6205D03EA822EC04F0040E3D6E51ECED
:102D900018F03E82D6D73EAEFF0C03500462FF0C03
:102DA000080E0318C1E0940E0362FF0CBDD7680E35
:102DB0003EA81250016E6A0E3EA81350026E945146
:102DC0003EA81450036E030E4226000EEE24422E3F
:102DD000FDD7EF6E040E0026000C06EC02F0E1D8E1
:102DE0006DEC05F000C044F0EE501FD96DEC05F01D
:102DF000444E000CF20E436E06EC02F006EC02F0BC
:102E0000432EFAD7F1D7800E1B6E406A000EEA6E91
:102E1000010EE96E82B20AD0EAEC02F03EB602D0B0
:102E20000FB2080C19BE010C82A2F6D711B42DB84E
:102E30000ED0C251446E436AEAEC02F019BE010C96
:102E400082A2EAD7432E01D0442EF6D72D88EAEC91
:102E500002F03EB602D00FB2080C19BE010C82B2CD
:102E6000F6D7006A2128826F34D83F6E080A2BE01B
:102E7000002A1B880F90715140620F8040260D0E72
:102E8000E95C7151D8A0EE6E0E6E040E006413D092
:102E9000030E3D6209D00B0E11B40C0E17A80DD015
:102EA00019BE00660CD00FD03F0E011401E10428BA
:102EB000040F001808E00F8002D0001804E03F5013
:102EC000FF0AD2E10F801BBE9ED7000C8A908A9227
:102ED000000CC205446E82A211D0436A82A20CD0BB
:102EE000EAEC02F082A208D082A206D0432E01D0E2
:102EF000442EF4D72D88080C9EEC05F08A9C1E6A9F
:102F0000A7EC02F0030E3D640BD017B20AD0040EFA
:102F1000006209D03F0E011408E1800E1B6E07D03D
:102F200000D0000000D0000000D0000000D0000061
:102F3000EAEC02F0010E2DA208D0A1EC05F02DA0C4
:102F400004D000009DEC05F0080E416EEAEC02F0A2
:102F5000412EFCD7090E416E060E426E03D071332E
:102F6000050E426ED7EC03F0EAEC02F0422EFAD7DF
:102F70009DEC05F02DA20AD09CEC05F02DA00ED002
:102F8000100E456EEAEC02F0452EFCD7D88082A2E6
:102F9000D890412EE4D7D850000CFF0C9EEC05F0E1
:102FA000F5D70F0E436EFF0E89EC05F0199A82A239
:102FB00010D043C044F006EC02F00FB2040C82A221
:102FC00008D019AAF8D7199A442EF5D706EC02F0C2
:102FD000000C446A06EC02F00FB2040C82B2E9D78E
:102FE000442EF8D706EC02F0050C080E416E199A33
:102FF000EAEC02F019AAFCD7199A412EF9D7041C61
:10300000056E002A12D87287190E64DF72973F6E20
:10301000000903E02DBC000C12007151066E002A5D
:10302000711DBF19D8A4FF0C000C0E6E8A808A9EF9
:103030001D6A06EC02F082A202D08A90030C090EEF
:10304000436E05D0000006EC02F0A2EC05F02DA2C4
:1030500007D0A4EC05F0050E2DA005D00B0E03D073
:1030600006EC02F0040E456EA4EC05F006EC02F04E
:10307000EAEC02F0452EFAD7434E08D00E32D85073
:1030800003D000008A80DED78A90DCD7000000D011
:103090008A9006EC02F006EC02F0000C19BC77D620
:1030A000ABD50FB806D0CF0E126E330E136E9451FF
:1030B000146E2CBA1200050E226EC10E236E246E01
:1030C000020E2264120024C025F0330E246E252641
:1030D000030E2264120025C026F09451256E262688
:1030E000040E2264120026C027F03E0E266E27260C
:1030F000050E2264120027C028F0000E276E282635
:10310000060E2264120028C029F0000E286E29261F
:10311000120051EC18F019BC5AD0600E2DAE3EAE24
:1031200098EC03F08D91810E046E010E006E7CEC24
:103130000FF06DEC05F0000EEA6E010EE96E4B0E1D
:10314000D2EC17F06DEC05F019BE010C030E8A12DB
:103150008A9E1D6AEAEC02F09DEC05F082A203D083
:10316000FC0E8A16030C39D8A9EC05F0A3EC05F087
:10317000FC0E8A1632D89DEC05F0A8EC05F0116A19
:10318000118C03C015F0F2EC16F06DEC05F07A0E20
:103190007287C7EC0FF072976DEC05F0070E001800
:1031A00007E105C0C0F006C0C1F08D8104500BD00E
:1031B000080E001802E02DAC0CD006C0C0F007C00D
:1031C000C1F08D810550C10A02E02DAC02D0C7EFDD
:1031D00016F0C72BC7A9DBD7FF0C0A0E426E416A57
:1031E00029EC03F0412E01D0422EFAD712003EA85E
:1031F0000ED0CF0EC00B4210016E330E3EA81350FE
:10320000026E94513EA81450036EE3EF16F0125074
:103210003F0B02E01250EED734D9010EE96E00C028
:1032200004F0002A00C042F01250E6D704D878D04B
:1032300002D8C7EF19F0010E966F810E9CEF1EF0B9
:10324000B36B349834840FB817D097A507D0EA0E23
:10325000126EFF0E136EBE51146E0ED037AE06D036
:10326000126A070E136EDF0E146E06D0DB0E126E9E
:10327000330E136E9451146E34BE06D0180E37BE42
:10328000000E97B5180E2E6E34BC23D037AE1CD06E
:103290009E6B9F6B070E1314070A11E1DF0E1418C3
:1032A00009E0F00E1414E00A0AE1070EA06FFF0E09
:1032B000A16F0FD0070EA06FF80EA16F0AD0070EF6
:1032C000A06FC00EA16F05D09E6B9F6BFF0EA06F0D
:1032D000A16B34BA000C37AE1DD0A26BA36B070EE6
:1032E0001314070A12E1DF0E14180AE0F00E14148A
:1032F000E00A0BE11350A46F1450A56FA587000CD2
:10330000070EA46FE80EA56F000C1350A46F1450A5
:10331000A56F000CA26BA36B1450A46FA56B000CDF
:1033200090EC1FF06DEC05F08BDF38EC1EF06DECCF
:1033300005F019AC02D03E8C000C97A507D0EE0E1C
:10334000056EFE0E066E076A0F9A0BD0020E056E12
:10335000010E066E076A9551086E096E0A6E0B6EB5
:103360000C6E030E006E366E35D86DEC05F0BAD8D3
:103370006DEC05F0190E7E617E510FAC190E0BEC51
:1033800010F072976DEC05F0190E61EF0FF090ECF4
:103390001FF06DEC05F054DF3486000C4250366EA1
:1033A00002E1368C17D06DD8050E0024E96E0D0EA3
:1033B000E96003D095C0EEFFFBD797B50BD097B36C
:1033C00017A003D05ED8005068D818A203D059D8EF
:1033D000165063D8040E00263EB809D02EC001F066
:1033E00012C002F013C003F014C004F0000C5EEC35
:1033F0001EF097B518D037AE25D0016A026A070EC5
:10340000036EDF0E046E2F6A306A070E316EF80EFF
:10341000326EDBDB29EC1EF02F6A306A070E316E4C
:10342000E80E326E2AD0180E016EEA0E026EFF0E02
:10343000036EBE51046E386AFE0E396EEE0E3A6EA1
:1034400019EF1FF0180E016EDB0E026E330E036EC5
:103450009451046E000E2F6E000E306EFF0E316E12
:10346000000E326EB2DB29EC1EF0000E2F6E000E45
:10347000306E9451316E000E326EA7DBC5DB3484A2
:10348000000C040EE96E080E426EEE50EFCF41F0D4
:10349000EE6E4150422EFAD71200056E080E006003
:1034A0001200002A362A120034B8CBDE070E97B578
:1034B000006212D035B404D0075005C007F0056E85
:1034C00005C03AF006C039F007C038F0359019EC65
:1034D0001FF06DEC05F006D0358034A403D0C8DBB6
:1034E0006DEC05F001C02FF002C030F003C031F0E8
:1034F00004C032F06ADB97A537AE30866E50E00B21
:1035000005E171BA02D071A003D0D8DB000ED7DB81
:1035100059EC1EF060B606EC1FF036BC03D0080E66
:1035200035AA37BC3650656E040F006E009C2FC064
:1035300061FF30C062FF31C063FF32C064FF05C06D
:1035400066FF06C067FF07C068FF08C069FF09C0C3
:103550006AFF0AC06BFF0BC06CFF0CC06DFFD9EC9B
:103560001DF0A46A8A9E1D6A59EC1EF0080E606E5A
:1035700006EC1FF04FEF1EF0B38B6E50E00B03E133
:10358000B39B35A0119CB3A30FD0700E11140BE1A7
:103590001FEC03F05EEC1EF00E0135EC1FF0B3BB28
:1035A00002D0000E8CDBB36B1B983492A49A1FECF4
:1035B00003F09853D8B435926E50E00B10E034A667
:1035C00006D034963EDEC1DB6DEC05F007D0600E10
:1035D0006E18E00B04E0600E72DBEBDAA46A5FDBCE
:1035E000EAEC02F00FB21FD019BE010C7150A49A80
:1035F00034B204D060AE02D034821BD0349254DB9B
:1036000060BE17D0A4BE3EBCEAD7983D982BA49EBE
:103610001FEC03F03EA647D0400E9865E0D74EDB86
:10362000986B982BD8D7B3A13EA6080C216A0F92AD
:10363000D6D761CF01F062CF02F063CF03F064CF41
:1036400004F066CF05F067CF06F068CF07F069CFCA
:1036500008F06ACF09F06BCF0AF06CCF0BF06DCF9A
:103660000CF065CF36F0A4CF44F0609EA46A8A9C2B
:103670001E6A1FEC03F013DB2128826F080E36B69A
:10368000366E0F90119271507F0B04E144BE02D050
:10369000986B23D0716A0F801182983D982B3EBCA5
:1036A0001CD03EB604D0050E986599D7BCD7715092
:1036B00003D0400E986506D001DB986B982B600E06
:1036C000FEDA77DA35B28BD7358244BE06D06C0E7F
:1036D00098EC03F092EC03F082D7349036BC34803F
:1036E0000F0E3616D8B434801FEC03F034A004D08B
:1036F00097A518A281D073D797B57AD118A203D015
:10370000945105626CD7055018B20650456E97A3C8
:1037100073D018BE11B470D04550F00B100A6CE194
:10372000080E366009D035BA02D033BE65D0010E1E
:1037300018B2020E366460D04550100A05E10650FA
:1037400018B20750060858E2A62D0CD0A7C02FF0DB
:10375000A8C030F0A9C031F0AAC032F01FEC03F0CD
:1037600034DA13D001C02FF002C030F003C031F0C2
:1037700004C032F03098A66708D037AE02D02F9040
:1037800004D003C032F004C031F01FEC03F03096D7
:1037900037AE30868EDA60B639DB080E35AA37BC14
:1037A000030E656E2FC061FF30C062FF31C063FF42
:1037B00032C064FF300E666E676A686A9551696E42
:1037C0006A6E6B6E6C6E6D6EA65310E0505135AA2A
:0F37D00037BC656EABC066FFACC067FFADC068AD
:1037E000AEC069FFAFC06AFF1FEC03F0080E606E49
:1037F000108E55DA01D0B383E7DA1FEC03F0040E24
:103800003624006E000EEA6E060E97A518A2050E6D
:10381000E96E97A117A006D03450E1D697B324D013
:1038200097B58ED072B7000C17B2BBD834A00ED0AB
:10383000520EF9EC03F01FEC03F0540EF9EC03F018
:10384000520EF9EC03F017EC04F0000C080E36648D
:103850003650050F416E1FEC03F04150E960000C3B
:10386000EE50D5EC03F0F7D7455061E0F00B426E17
:1038700002E145B654D03F0852E3100E426205D033
:10388000020E18B2030E36644AD035AA33AE03D006
:10389000080E366244D072B7000C17A20AD081D845
:1038A0001FEC03F04528425237E0300E4262CED77B
:1038B00032D0426603D0EE5045282ED01FEC03F0E4
:1038C000200E426208D0EE5089EC03F01AEC04F0AE
:1038D00017EC04F0BBD7100E42620ED0EE508EEC07
:1038E00003F01FEC03F0EE50D5EC03F092EC03F084
:1038F0001FEC03F0300EEAD7460EF9EC03F0430E4E
:103900001AEC04F01FEC03F017EC04F0EE508EEC10
:1039100003F017EC04F0030E18B2010F98D73EB66F
:1039200009D03EAC3EA85BD60F807287000C3EA645
:10393000F8D733BC0F8017B234D81FEC03F086D70A
:1039400072B7000C17A21ED043B602D02CD87ED777
:103950000130426E4232429642508EEC03F01FEC30
:1039600003F017EC04F0000E0150010E8EEC03F092
:1039700002388EEC03F01FEC03F002508EEC03F0E3
:103980001ED864D7B3A762D705388EEC03F01FECBE
:1039900003F0EE508EEC03F090EC03F017EC04F023
:1039A00055D743B604D003508EEC03F00BD0015032
:1039B000D5EC03F01FEC03F00250D5EC03F00350FC
:1039C000D5EC03F01FEC03F00450D5EC03F018AA7B
:1039D00007D01FEC03F036508EEC03F017EC04F028
:1039E00097A518A212001FEC03F09451D5EF03F035
:1039F0001FEC03F00238300BB46F0244C10BB41358
:103A000001440E0BB413B43B700E1114D8A4F3D6BA
:103A10003550F1D63950B419D8B4EDD6080E366207
:103A2000DED51FEC03F0E80EB4630AD03A500A6208
:103A3000D6D539500B62D3D538500C62D0D5DBD6F1
:103A4000EC0EB4635ED03A500A62C9D539500B62AD
:103A5000C6D538500C62C3D50950BB6F100E05187F
:103A600006E0200E0562BBD5B389FF0EBB6FB3879E
:103A700004C0B5F006C0B6F007C0B7F00850B86F84
:103A8000BA6FB96BB92BBC6BBD6B100EBB61BB6F52
:103A90000850BB61BB6FB38B6E50E00BD8B4B39BC7
:103AA0001FEC03F00BD90E01FE69FF694B0EE96FA5
:103AB000ED6FF16F156F0350EA6FEE6FF26FF66FF7
:103AC0000450EB6FEF6FF36FF76F0001B381600E7F
:103AD000B3AB000EF4D817A00CD0B7518EEC03F0A6
:103AE0001FEC03F0B651D5EC03F01FEC03F092ECA1
:103AF00003F0B3A911B473D5AEEC1DF06DEC05F075
:103B00006ED5EB0EB4636BD5B3A911B4B385BC2BE2
:103B1000BD2B1FEC03F0B3A504D0B851BC61B38337
:103B20006BD6BD51BB6368D6B927BA5FBA670ED0F2
:103B3000B383BFD860B66AD9130E666EB651676E8E
:103B4000B751686EB851696E13D856D6BD6BBA516D
:103B5000BB61BB6F03D86DEC05F04ED6AAD860B63A
:103B600055D9110E666EBBC067FFB9C068FF6968A2
:103B70006A683AC06BFF39C06CFF38C06DFFE70E52
:103B8000616E680E626EB5C063FF14C064FF080EFC
:103B9000656E1FEC03F0E6D48B986F88300E6E18BC
:103BA000E00BD8A48BD88A843E903496B16BB26B6C
:103BB000000C7AD8609E4FEC1EF0609E716A000C7B
:103BC00037AA03D034AC34BA1CD037AE0CD032365E
:103BD0003136323631361F0E31142F6EFC0E321450
:103BE000306E316A326A030E3014416E30362F3631
:103BF00030362F3630362F36E00E30144110306E0E
:103C0000000C35B8F0D7E3D70E012F50EA6FE46F00
:103C1000E86FEC6FF06FF46F308637AE37BA3096DE
:103C20003050E56FED6FF56F37BA0809E16FE96F56
:103C3000F16F3150E26FE66FEA6FEE6FF26FF66F81
:103C40003250E36FE76FEB6FEF6FF36FF76F0001C9
:103C5000000C0E012F50F86FFC6F3050F96FFD6FA4
:103C60003150FA6FFE6F3250FB6FFF6F0001000C96
:103C700025D89EC02FF09FC030F0A0C031F0A1C069
:103C800032F09EDFE6DFA2C02FF0A3C030F0A4C068
:103C900031F0A5C032F094DFB7DF3494000C6F50E0
:103CA000E10B00096F6E000C6F50E10B0A096F6E9B
:103CB000000C6F50E10B08096F6E000C800E436E14
:103CC0006E18E00BD8B4000C42CEB1F041CEB2F089
:103CD0006E50E00B600A02E1000E03D8435001D899
:103CE000000C6F6E9645426E416AEAEC02F06E502F
:103CF0006F18E00BD8B4000C414E422EF6D70600E8
:103D00008A84300E6F6E9645600F426EEAEC02F0C8
:103D1000300E6E18E00B07E0414E422EF7D7D28FDF
:103D2000940ED16FFF0081A4FAD73E90349612EC26
:103D300010F0FC660600060C376E070B010F976B40
:103D4000978F9747FF0FFDE11200B8DF34AC34BA0C
:103D500019D097A507D0700E111404E16AD86DEC44
:103D600005F02FD02F6A306A316A326AFF0E11BC1B
:103D7000316E11BA326E24DF6CDF2F6A306A316A1D
:103D8000326A17D09EC02FF09FC030F0A0C031F033
:103D9000A1C032F0FF0E11BC316E11BA326E10DFCD
:103DA00058DFA2C02FF0A3C030F0A4C031F0A5C0EE
:103DB00032F0155011BC316E11BA326E01DF24DFC2
:103DC0003484600E7CDFF5D6436A0B0E0214416E1C
:103DD00001320232013A023A0F0E0216F00E0114BD
:103DE0000212070E011641B607D001C003F002C04F
:103DF00004F0016A026A000CD890023601360236DD
:103E000001364150030B02124368000C964596257B
:103E1000416E426AEAEC02F060A6000C715003D0D9
:103E2000424E412EF7D76096A49A4FEC1EF0060042
:103E3000060C44DFB36B348438C02FF039C030F047
:103E4000F3EC1DF00E012F50E06FE46F30500809C5
:103E5000E16FE56FF00E396005D0FF0EE26F145090
:103E6000E66F03D03A50E26FE66F0E0EF86FFC6F0C
:103E7000E30EF96FFD6FFA69FE6BFB6BFF6B070ECC
:103E8000E86FEC6FF06FF46F680EE96FED6F11A4DF
:103E9000480EF16FF56F0001000C05D890EF19F096
:103EA00002D8C7EF19F0010E966F010E9CEF1EF0BD
:103EB00005D890EF19F002D8C7EF19F0020E966FEF
:103EC000810E9CEF1EF005D890EF19F002D8C7EFD5
:103ED00019F0020E966F010E9CEF1EF005D890EFC0
:103EE00019F002D8C7EF19F099C096F0420E9CEF76
:103EF0001EF005D890EF19F002D8C7EF19F09BC05B
:103F000096F09A519CEF1EF005D890EF19F002D868
:103F1000C7EF19F09DC096F09C519CEF1EF0000079
:103F20009651426E416A33B681B604D0414E422E5C
:103F3000FBD7060CC3DEA36A200E706E960597A50C
:103F400080090E01436F0001BC0E97A5BB0E0E0148
:103F5000446F37B844990001010E97A5020E0E0177
:103F6000456F00013E80A0DE000E606E98DE040EFC
:043F7000606E000C73
:107F0000FFFFFFFFFFFFFFFFFFDBEF3F1BE03FF047
:107F6000FFFFDBEF3FF0FFFFFFFFFFFFFFFFFFFF24
:107F7000FFFFFFFFFFFFFFFFFFFFFFFFFFFFDBEF45
:027F80003FF0D0
:107FA000FFFFFFFFFFFFFFFFFFFFFFFFFFFFFFFFE1
:107FB000FFFFFFFFFFFFFFFFFFFFFFFFFFFF0202CB
:107FC0000000000001E92F300002008000040200E0
:107FD00028E100000890100000D7000004046404A9
:107FE000020260E02C3000E00020D090020000008F
:107FF000000000000000000000020000000002007D
:020000040030CA
:080000005DDF7F7F00899100A4
:00000001FF
