:0400000029EF17F0DD
:100F000000010000000A00000064000000E8030087
:100F10000010270000A086010040420F0080969834
:100F20000000E1F50500CA9A3B00803F0020410027
:100F3000C842007A44401C4650C34724744997185D
:100F40004BBCBE4C6B6E4E03155079AD60F34971CE
:100F500000803FCDCC3DD7233C12833AB7D138C671
:100F60002737388635C0D633CC2B32708930E7DB53
:100F70002EE53C1E42A20D566F6C746167652056CB
:100F800025362E32660D0A007374616765320A0DCC
:100F9000002025630A0D0000420E0001E66F000EDE
:100FA0000001E76FCCEF0CF0250E0001FD19D8B45D
:100FB00006D00001FD5146EC18F0CCEF0CF0000E0D
:100FC0000001F76F000EF66F000E0001EF6F000ECC
:100FD000EE6F40C0F6FF41C0F7FF0800F55021EC6E
:100FE00018F0D8A035D0000E0001F76F000EF66F94
:100FF000F6C00FF0F7C010F0000E126E0A0E116E60
:10100000EAEC17F00FC0F6F010C0F7F0D00E456E06
:10101000FF0E466E40C0F6FF41C0F7FF0800F550D6
:10102000476E486A455047264650482247500001BF
:10103000F62748500001F723404A412A40C0F6FFF6
:1010400041C0F7FF0800F55021EC18F0D8B0D0D718
:1010500040C0F6FF41C0F7FF0800F5502E0AD8A4A3
:1010600032D00001EF8D404A412A000E0001FC6F92
:10107000000EFB6F1DD0FBC00FF0FCC010F0000E87
:10108000126E0A0E116EEAEC17F040C0F6FF41C076
:10109000F7FF0800F5500F26000E1022D00E0F2487
:1010A0000001FB6FFF0E10200001FC6F404A412A37
:1010B00040C0F6FF41C0F7FF0800F55021EC18F0E2
:1010C000D8A077D0D8D7000E0001FC6F000EFB6FC0
:1010D0000001EF896ED00001EF8580D00001FB5147
:1010E0000001FC11D8B40ED00001E8510001FB5DF5
:1010F0000001E9510001FC59D8B004D0FBC0E8F070
:10110000FCC0E9F00001F6510001E85D0001F75173
:101110000001E959D8B009D00001E8510001F65F9B
:101120000001E9510001F75B09D0000E0001F76FE3
:10113000000EF66F03D0200E46EC18F00001F60703
:10114000D8A0F7070001F629F6E10001F729D8B485
:101150000BD0F1D7E4C0D9FFE5C0DAFFDF5046EC91
:1011600018F00001E44BE52B0001E807D8A0E907DF
:101170000001E829EFE10001E929D8B4CCEF0CF037
:10118000E9D7E6C0D9FFE7C0DAFFDF500001FD6F05
:10119000020E0001E627000EE723FD0E0001E46FBA
:1011A000000E0001E56F000E0001E96F010EE86F0F
:1011B00095D740C0F6FF41C0F7FF404A412A0800DA
:1011C000F5CFFDF00001FD51000AD8B41200630A0A
:1011D000D8B4D7D7050AD8B47ED7DFD7070E000119
:1011E000EF15D8B428D30001EFA905D0000E0001F7
:1011F000FC6F060EFB6FE6C0D9FFE7C0DAFFDECF5B
:10120000F8F0DECFF9F0DDCFFAF0030E0001E627AB
:10121000000EE7230001FAAF11D0F8C001F0F9C0C9
:1012200002F0FAC003F0FDEC17F001C0F8F002C0C4
:10123000F9F003C0FAF0030E0001EE13000E0001F6
:10124000F56F000EF46F0001F8510001F911000173
:10125000FA11D8B48BD0820E456EFF0E466EF8C0E0
:1012600047F0F9C048F0FAC049F0FBC04AF0100E50
:1012700005D0D8904A32493248324732E82EF9D761
:10128000475045240001F46F000E46200001F56F21
:101290000001F407D8A0F507F4C00FF0F5C010F076
:1012A000000E126E030E116EEAEC17F00FC0F4F090
:1012B00010C0F5F0F4C007F0F5C008F0000E0A6E9B
:1012C0000A0E096E20EC15F007C0F4F008C0F5F026
:1012D0000001F5AF04D00001F407D8A0F507000124
:1012E000F4510008DBEC0CF024C0F0F025C0F1F064
:1012F00026C0F2F0F0C015F0F1C016F0F2C017F001
:10130000F8C018F0F9C019F0FAC01AF0F9EC11F0B1
:1013100015C0F0F016C0F1F017C0F2F0F0C001F007
:10132000F1C002F0F2C003F0000E046E800E056EF4
:101330003F0E066ED8EC14F0D8B005D00001F407CB
:10134000D8A0F50713D0F0C001F0F1C002F0F2C050
:1013500003F0000E046E200E056E410E066ED8ECF2
:1013600014F0D8A003D00001F44BF52B0001FCBF12
:1013700008D00001FC511DE10D0E0001FB5DD8B04D
:1013800018D0F8C02EF0F9C02FF0FAC030F00001EC
:10139000FB51D3EC0EF024C031F025C032F026C052
:1013A00033F0F6EC0FF02EC0F8F02FC0F9F030C09B
:1013B000FAF00001F5BF08D00001F55126E10A0E50
:1013C0000001F45DD8B021D00001F8510001F911FD
:1013D0000001FA11D8B45BD0F8C02BF0F9C02CF0A2
:1013E000FAC02DF073EC12F02B502C102D102E1093
:1013F000D8A44DD00001F5BF4AD00001F55105E158
:10140000020E0001F45DD8A042D0F0C001F0F1C09E
:1014100002F0F2C003F0700E046E890E056E400EED
:10142000066ED8EC14F0D8B003D00001F70E02D04D
:101430000001F80EF427FF0EF5230001F451DBEC58
:101440000CF024C0F0F025C0F1F026C0F2F0F8C096
:1014500001F0F9C002F0FAC003F0F0C004F0F1C0EE
:1014600005F0F2C006F0CCEC10F001C0EAF002C0CA
:10147000EBF003C0ECF004C0EDF0000E0001F86FDB
:10148000000E0001F96F000E0001FA6F33D0F8C0B2
:101490002BF0F9C02CF0FAC02DF073EC12F02BC039
:1014A000EAF02CC0EBF02DC0ECF02EC0EDF0F8C04F
:1014B0003AF0F9C03BF0FAC03CF0EAC009F0EBC0EA
:1014C0000AF0ECC00BF0EDC00CF081EC16F009C096
:1014D0003DF00AC03EF00BC03FF06BEC17F03AC095
:1014E000F8F03BC0F9F03CC0FAF0000E0001F56FD7
:1014F000000EF46F010E0001FD6F0A0E0001FD19D0
:10150000D8B41ED00001FD51040D010EF324F66E77
:101510000F0EF420F76E0900F5500001EA5D090096
:10152000F5500001EB590900F5500001EC59090094
:10153000F5500001ED59D8A003D00001FD2BDDD7F7
:10154000FDC045F0466A45BE46060001FB514526F2
:101550000001FC5146220001F45145260001F551DD
:10156000462245500001F65F46500001F75B00013E
:10157000FB510001FC11D8B404D00001F607D8A03B
:10158000F707030E0001EE15456E000E0001EF1582
:10159000466E45504610D8B408D003D0200E46EC15
:1015A00018F00001F607D8A0F7070001F7BF07D031
:1015B0000001F751F3E10001F605D8B0EFD7030EB3
:1015C0000001EE15456E000E0001EF15466E455008
:1015D0004610D8B44AD02D0E46EC18F046D0EAC0DA
:1015E00001F0EBC002F0ECC003F0EDC004F000012C
:1015F000FD51040D010EF324F66E0F0EF420F76E6C
:101600000900F5CF05F00900F5CF06F00900F5CF88
:1016100007F00A00F5CF08F062EC15F001C0F0F019
:1016200002C0F1F003C0F2F004C0F3F0F0C001F02A
:10163000F1C002F0F2C003F0F3C004F00A0E056E30
:10164000000E066E000E076E000E086E4EEC16F0D1
:1016500001C0F0F002C0F1F003C0F2F004C0F3F0FA
:101660000001F051300F46EC18F00001FD070001B9
:10167000FD29D8B408D0B3D7300E46EC18F00001DD
:10168000F407D8A0F5070001F5BF07D00001F55118
:10169000F3E10001F405D8B0EFD70001FCBF0CD096
:1016A0000001FC5105E1090E0001FB5DD8A004D04A
:1016B000080E0001FD6F02D0FBC0FDF00001FD51DE
:1016C0000001FB5F000E0001FDBFFF0E0001FC5B8F
:1016D0000001FD510001D8B403D02E0E46EC18F0E5
:1016E0000001FD51DBEC0CF024C0E1F025C0E2F07C
:1016F00026C0E3F0F8C018F0F9C019F0FAC01AF0EB
:10170000E1C015F0E2C016F0E3C017F0F9EC11F0FB
:1017100015C02BF016C02CF017C02DF073EC12F092
:101720002BC0EAF02CC0EBF02DC0ECF02EC0EDF099
:101730006DD0EAC001F0EBC002F0ECC003F0EDC0E8
:1017400004F00001FD51040D010EF324F66E0F0E9E
:10175000F420F76E0900F5CF05F00900F5CF06F08B
:101760000900F5CF07F00A00F5CF08F062EC15F09C
:1017700001C0F0F002C0F1F003C0F2F004C0F3F0D9
:10178000F0C001F0F1C002F0F2C003F0F3C004F0C9
:101790000A0E056E000E066E000E076E000E086E35
:1017A0004EEC16F001C0F0F002C0F1F003C0F2F010
:1017B00004C0F3F00001F051300F46EC18F0EAC01D
:1017C00001F0EBC002F0ECC003F0EDC004F000014A
:1017D000FD51040D010EF324F66E0F0EF420F76E8A
:1017E0000900F5CF05F00900F5CF06F00900F5CFA7
:1017F00007F00A00F5CF08F04EEC16F001C0EAF051
:1018000002C0EBF003C0ECF004C0EDF00001FD07F6
:101810000001FD29D8B408D08CD7300E46EC18F062
:101820000001FB07D8A0FC070001FB510001FC11DF
:10183000D8B4B2D0F2D70001FB510001FC11D8A4FA
:101840000DD00001EA510001EB110001EC11000183
:10185000ED11D8A403D00001FB4BFC2B800E00013E
:10186000FDBF7F0E456E0001FB510001FD5D0001D3
:10187000FC51800A4558D8B003D0FBC0FDF016D00B
:101880000001FC51800A456E0001FD510001FB5D25
:10189000800E0001FDBF7F0E4558D8B007D0000173
:1018A000FD510001FB6FFC6BFBBFFC070001F65113
:1018B0000001F711D8B410D0030E0001EE15456EEB
:1018C000000E0001EF15466E45504610D8B404D006
:1018D0000001F607D8A0F7070001EFAD1CD000010A
:1018E000F6510001FB5D0001FC51800A456E0001CC
:1018F000F751800A4558D8B009D00001FB510001CA
:10190000F65F0001FC510001F75B05D0000E0001FD
:10191000F76F000EF66F800E0001FDBF7F0E456E63
:101920000001F6510001FD5D0001F751800A4558A4
:10193000D8B00BD00001FD510001F65F000E000190
:10194000FDBFFF0E0001F75B05D0000E0001F76F31
:10195000000EF66F0001F6510001F711D8B40DD05A
:10196000200E46EC18F00001F607D8A0F70700019A
:10197000F6510001F711D8A4F3D7030E0001EE15BC
:10198000456E000E0001EF15466E45504610D8B466
:1019900003D02D0E46EC18F040C0F6FF41C0F7FF13
:1019A000404A412A0800F5CFFDF00001FD51D8B4AE
:1019B0001200D4EF07F02A6E2AAEFBD02A6C2A5010
:1019C000800A120FD8A091D0000E126E030E116E75
:1019D000000E0A6E0A0E096E000E046E640E036E8F
:1019E0002A50016E026A01BE0206DFEC15F001C04A
:1019F00007F002C008F020EC15F0090E07240F6E66
:101A0000000E0820106EEAEC17F0500E0F24F66E50
:101A10000F0E1020F76E0900F5CF18F00900F5CF72
:101A200019F00A00F5CF1AF0000E0A6E640E096E66
:101A30002A50076E086A07BE080620EC15F0120E41
:101A400007240F6E000E0820106E000E126E030E9B
:101A5000116EEAEC17F0500E0F24F66E0F0E1020E8
:101A6000F76E0900F5CF15F00900F5CF16F00A0062
:101A7000F5CF17F0F9EC11F015C027F016C028F0DB
:101A800017C029F027C015F028C016F029C017F09C
:101A9000000E126E030E116E000E046E0A0E036E1F
:101AA0002A50016E026A01BE0206DFEC15F001C089
:101AB0000FF002C010F0EAEC17F0500E0F24F66E93
:101AC0000F0E1020F76E0900F5CF18F00900F5CFC2
:101AD00019F00A00F5CF1AF0F9EC11F015C024F056
:101AE00016C025F017C026F012002A50800A750F84
:101AF000D8A04DD0000E0A6E0A0E096E2A50076E4D
:101B0000086A07BE080620EC15F0090E07240F6EC0
:101B1000000E0820106E000E126E030E116EEAEC1D
:101B200017F0500E0F24F66E0F0E1020F76E0900FE
:101B3000F5CF15F00900F5CF16F00A00F5CF17F034
:101B4000000E126E030E116E000E046E0A0E036E6E
:101B50002A50016E026A01BE0206DFEC15F001C0D8
:101B60000FF002C010F0EAEC17F0500E0F24F66EE2
:101B70000F0E1020F76E0900F5CF18F00900F5CF11
:101B800019F00A00F5CF1AF0F9EC11F0A7D72A5096
:101B9000030D500EF324F66E0F0EF420F76E0900BD
:101BA000F5CF24F00900F5CF25F00A00F5CF26F097
:101BB00012002A50800A120FD8A091D0000E126E87
:101BC000030E116E000E0A6E0A0E096E000E046EF0
:101BD000640E036E2A50016E026A01BE0206DFEC3B
:101BE00015F001C007F002C008F020EC15F0090E56
:101BF00007240F6E000E0820106EEAEC17F0290E75
:101C00000F24F66E0F0E1020F76E0900F5CF18F0B6
:101C10000900F5CF19F00A00F5CF1AF0000E0A6E90
:101C2000640E096E2A50076E086A07BE080620EC8B
:101C300015F0120E07240F6E000E0820106E000E15
:101C4000126E030E116EEAEC17F0290E0F24F66ED9
:101C50000F0E1020F76E0900F5CF15F00900F5CF33
:101C600016F00A00F5CF17F0F9EC11F015C027F0C7
:101C700016C028F017C029F027C015F028C016F0AC
:101C800029C017F0000E126E030E116E000E046EC6
:101C90000A0E036E2A50016E026A01BE0206DFECD4
:101CA00015F001C00FF002C010F0EAEC17F0290E99
:101CB0000F24F66E0F0E1020F76E0900F5CF18F006
:101CC0000900F5CF19F00A00F5CF1AF0F9EC11F080
:101CD00015C024F016C025F017C026F012002A50B7
:101CE000800A750FD8A04DD0000E0A6E0A0E096E3C
:101CF0002A50076E086A07BE080620EC15F0090E88
:101D000007240F6E000E0820106E000E126E030ED8
:101D1000116EEAEC17F0290E0F24F66E0F0E10204C
:101D2000F76E0900F5CF15F00900F5CF16F00A009F
:101D3000F5CF17F0000E126E030E116E000E046E3A
:101D40000A0E036E2A50016E026A01BE0206DFEC23
:101D500015F001C00FF002C010F0EAEC17F0290EE8
:101D60000F24F66E0F0E1020F76E0900F5CF18F055
:101D70000900F5CF19F00A00F5CF1AF0F9EC11F0CF
:101D8000A7D72A50030D290EF324F66E0F0EF42068
:101D9000F76E0900F5CF24F00900F5CF25F00A0011
:101DA000F5CF26F012002D6E6D0E2D649FD0000E23
:101DB000126E030E116E000E0A6E0A0E096E000EF0
:101DC000046E640E036E2DC001F0026ADFEC15F0A4
:101DD00001C007F002C008F020EC15F0090E07243E
:101DE0000F6E000E0820106EEAEC17F0500E0F2454
:101DF000F66E0F0E1020F76E0900F5CF18F00900EF
:101E0000F5CF19F00A00F5CF1AF0000E0A6E640E35
:101E1000096E2DC007F0086A20EC15F0120E072499
:101E20000F6E000E0820106E000E126E030E116E63
:101E3000EAEC17F0500E0F24F66E0F0E1020F76E1E
:101E40000900F5CF15F00900F5CF16F00A00F5CF1F
:101E500017F0F9EC11F015C02AF016C02BF017C0DE
:101E60002CF0000E126E030E116E000E046E0A0EA0
:101E7000036E2DC001F0026ADFEC15F001C00FF017
:101E800002C010F0EAEC17F0500E0F24F66E0F0EA1
:101E90001020F76E0900F5CF18F00900F5CF19F002
:101EA0000A00F5CF1AF02AC015F02BC016F02CC08E
:101EB00017F0F9EC11F015C027F016C028F017C084
:101EC00029F027C015F028C016F029C017F0000E21
:101ED000186E000E196E3F0E1A6EF9EC11F015C057
:101EE00024F016C025F017C026F012000A0E2D644B
:101EF0005DD0000E126E030E116E000E046E0A0EFF
:101F0000036E2DC001F0026ADFEC15F001C00FF086
:101F100002C010F0EAEC17F0500E0F24F66E0F0E10
:101F20001020F76E0900F5CF18F00900F5CF19F071
:101F30000A00F5CF1AF0000E0A6E0A0E096E2DC0C7
:101F400007F0086A20EC15F0090E07240F6E000E4A
:101F50000820106E000E126E030E116EEAEC17F0E0
:101F6000500E0F24F66E0F0E1020F76E0900F5CFFD
:101F700015F00900F5CF16F00A00F5CF17F0F9ECCF
:101F800011F015C02AF016C02BF017C02CF02AC093
:101F900015F02BC016F02CC017F0000E186E000EB6
:101FA000196E3F0E1A6EF9EC11F099D72D50030DF2
:101FB000500EF324F66E0F0EF420F76E0900F5CFE5
:101FC00015F00900F5CF16F00A00F5CF17F0000E56
:101FD000186E000E196E3F0E1A6EF9EC11F015C056
:101FE00024F016C025F017C026F0120030C034F0DF
:101FF000356A366A2F34343601E335803450396E11
:1020000033C034F0356A366A3234343601E3358011
:102010003450386E3950D8B40BD03850395CD8B001
:102020000ED0395000083824346E180E346407D0AE
:1020300031C02EF032C02FF033C030F012003850D3
:10204000D8B40BD03950385CD8B00ED03850000816
:102050003924346E180E346407D02EC02EF02FC0F1
:102060002FF030C030F01200060E376E30BE378EC3
:1020700033BE378C2F8EFF0E2E16FF0E2F16000E3E
:102080003016328EFF0E3116FF0E3216000E33164A
:102090003850395CD8B01BD0D89031363236333610
:1020A000380639503818D8B40DD0370637C034F058
:1020B000070E3416D8B406D0EFD7D89030322F326E
:1020C0002E32392A38503918D8B41FD0F6D73950A3
:1020D000385CD8B01AD0D8902E362F363036390624
:1020E00039503818D8B40DD0370637C034F0070E41
:1020F0003416D8B406D0EFD7D890333232323132DA
:10210000382A38503918D8A4F7D737AE0CD0FF0E7C
:102110002E1AFF0E2F1AFF0E301A010E2E26000E59
:102120002F22000E302237AC0CD0FF0E311AFF0EDA
:10213000321AFF0E331A010E3126000E3222000E23
:102140003322000E376E2E5031262F50322230505F
:10215000332233AE0ED0FF0E311AFF0E321AFF0EAD
:10216000331A010E3126000E3222000E3322010EE8
:10217000376E31C001F032C002F033C003F039C015
:1021800004F037C005F02FEC14F001C02EF002C0AF
:102190002FF003C030F0120003C007F0086A096A8C
:1021A0000234073601E3088007500F6E0F50D8A4A1
:1021B00009D0000E016E000E026E000E036E000EBE
:1021C000046E120006C007F0086A096A0534073673
:1021D00001E3088007500E6E0E50D8A409D0000EFF
:1021E000016E000E026E000E036E000E046E1200F1
:1021F000028EFF0E0116FF0E0216000E0316058E4C
:10220000FF0E0416FF0E0516000E0616000E0A6ECF
:10221000000E0B6E000E0C6E000E0D6E7F0E0F5E2C
:102220000E50980F0F5E180E0E6ED8900A360B36B1
:102230000C360D360450015C055002580650035808
:10224000D8A007D00450015E0550025A0650035A28
:102250000A80D8900136023603360E2EE6D70FAE2E
:1022600016D00F50800A970FD8B009D0000E016E1B
:10227000000E026E000E036E000E046E1200D89067
:102280000D320C320B320A320F3EF9D715D0170E31
:102290000F640FD0000E016E000E026E000E036E72
:1022A000000E046E1200D8900A360B360C360D362E
:1022B0000F060F50D8A4F7D70AC001F00BC002F0E8
:1022C0000CC003F00DC004F01200033404340C6E93
:1022D0000C50D8A409D0000E016E000E026E000E44
:1022E000036E000E046E1200063407340B6E0B50A2
:1022F000D8A409D0000E016E000E026E000E036E0F
:10230000000E046E1200038EFF0E0116FF0E021661
:10231000FF0E0316000E0416068EFF0E0416FF0EA7
:102320000516FF0E0616000E0716000E076E000EAD
:10233000086E000E096E000E0A6E7F0E0C5E0B50CA
:10234000A00F0C5E200E0B6ED890073608360936AB
:102350000A360450015C05500258065003580750D5
:102360000458D8A009D00450015E0550025A065006
:10237000035A0750045A0780D890013602360336B4
:1023800004360B2EE1D70CAE16D00C50800A9F0FEE
:10239000D8B009D0000E016E000E026E000E036E62
:1023A000000E046E1200D8900A3209320832073249
:1023B0000C3EF9D715D01F0E0C640FD0000E016E25
:1023C000000E026E000E036E000E046E1200D89016
:1023D0000736083609360A360C060C50D8A4F7D74B
:1023E00007C001F008C002F009C003F00AC004F001
:1023F000120017C01BF01C6A1D6A16341B3601E35D
:102400001C801B501E6E1E50D8A407D0000E156EE7
:10241000000E166E000E176E12001AC01BF01C6A1A
:102420001D6A19341B3601E31C801B50236E235098
:10243000D8A407D0000E156E000E166E000E176E93
:10244000120023507B0F1E2617C023F01A50231AA8
:10245000800E2316168E198EFF0E1816FF0E1916F3
:10246000000E1A16000E1F6E000E206E000E216E5A
:10247000070E226E15A006D018501F2619502022D4
:102480001A502122D890173216321532D8901836A9
:1024900019361A36222EEED7090E226E15A006D056
:1024A00018501F26195020221A502122D890173276
:1024B00016321532D890213220321F32222EEED71A
:1024C0001FC001F020C002F021C003F01EC004F0C4
:1024D00023C005F02FEC14F001C015F002C016F077
:1024E00003C017F012002DC02FF0306A316A2C346F
:1024F0002F3601E330802F50396E3950D8A409D0DF
:10250000000E2B6E000E2C6E000E2D6E000E2E6E29
:102510001200170E2F6E2BC030F02CC031F02DC0E2
:1025200032F02F28336E04D0D8903232313230322C
:10253000332EFAD73050346E2C8EFF0E2B16FF0E32
:102540002C16000E2D162B50356E2C50366E2D503D
:10255000376E386A8E0E395E39AE16D03950800A21
:102560008F0FD8B009D0000E2B6E000E2C6E000E0F
:102570002D6E000E2E6E1200D89038323732363261
:102580003532393EF9D715D0170E39640FD0000E09
:102590002B6E000E2C6E000E2D6E000E2E6E120095
:1025A000D890353636363736383639063950D8A4CD
:1025B000F7D73450D8B408D0381E371E361E356CC5
:1025C000000E36223722382235C02BF036C02CF0D0
:1025D00037C02DF038C02EF0120026C02AF02B6A2A
:1025E0002C6A25342A3601E32B802A50316E315073
:1025F000D8A407D0000E246E000E256E000E266EA5
:10260000120029C02AF02B6A2C6A28342A3601E3EA
:102610002B802A50326E3250D8A407D0000E246E80
:10262000000E256E000E266E1200000E2E6E000E9D
:102630002F6E000E306E3250890F315E26C032F0A0
:102640002950321A800E3216258EFF0E2416FF0EE8
:102650002516000E2616288EFF0E2716FF0E2816AA
:10266000000E2916180E2D6ED8902E362F363036C5
:102670002750245C2850255829502658D8A007D028
:102680002750245E2850255A2950265A2E80D8904B
:102690002436253626362D2EE7D72EC001F02FC042
:1026A00002F030C003F031C004F032C005F02FEC6E
:1026B00014F001C024F002C025F003C026F012007F
:1026C00030EC18F0000E4C6E000E4B6EC0EC17F0A4
:1026D000000E0F6E960E106E000E116E000E126E32
:1026E00017EC16F0850E196E000E1A6ED7EC17F067
:1026F0008BEC17F09EA8FED79EAAFAD7AECF4DF06E
:10270000D30E116E000E126E4DC013F0146A000E3F
:10271000166E0A0E156E04EC17F011C019F012C0F7
:102720001AF0D7EC17F0910E406E0F0E416E4DC0AF
:1027300042F0436ACCEC07F0760E4D18D8A40AD0CC
:10274000A3EC15F0000E4D6E880E406E0F0E416E1C
:10275000CCEC07F0630E4D18D8A4CAD7D30E116E77
:10276000000E126E51C013F052C014F0000E166E1F
:102770000A0E156E04EC17F011C019F012C01AF011
:10278000D7EC17F08E0E406E0F0E416ECCEC07F0BA
:10279000AFD7000E0A6E08AE0AD0081E071E061E2E
:1027A000056C000E062207220822010E0A6E04AEF6
:1027B0000AD0041E031E021E016C000E0222032218
:1027C0000422010E0A1A000E0B6E000E0C6E000E93
:1027D0000D6E000E0E6E0550061007100810D8B4CE
:1027E0002AD0010E096E06D0D89005360636073677
:1027F0000836092A08AEF8D7D8900B360C360D36B5
:102800000E360550015C0650025807500358085018
:102810000458D8A009D00550015E0650025A07504E
:10282000035A0850045A0B80D890083207320632F7
:102830000532092EE1D70A50D8B408D00E1E0D1E5D
:102840000C1E0B6C000E0C220D220E220BC001F090
:102850000CC002F00DC003F00EC004F012000450D2
:10286000D8B405D0015002100310D8A40CD0000E2B
:10287000016E000E026E000E036E1200042AD89044
:10288000033202320132000E0114066E000E0214F1
:10289000076EFE0E0314086E065007100810D8B419
:1028A0000CD0ECD7042A010E0126000E0222000EE5
:1028B0000322D890033202320132000E0114066E58
:1028C000000E0214076EFF0E0314086E0650071068
:1028D0000810D8B406D0E6D70406D89001360236E0
:1028E000033602BE03D0020E0460F6D704A0029E97
:1028F000D8900432045003120550D8A4038E01C0AE
:1029000001F002C002F003C003F012000AC00EF092
:102910000BC00FF00EC001F00FC002F00CC003F0AE
:102920000DC004F0DBEC16F001C00EF002C00FF099
:10293000084A092A0E500F10D8A4ECD708C0D9FFB6
:1029400009C0DAFF000EDF6E0806D8A009060AC02B
:1029500001F00BC002F00CC003F00DC004F04AEC13
:1029600017F00150106E0AC001F00BC002F00CC04D
:1029700003F00DC004F0DBEC16F001C00AF002C059
:102980000BF0090E106402D0070E1026300E102630
:1029900008C0D9FF09C0DAFF10C0DFFF0806D8A0C1
:1029A00009060A500B10D8A4D2D7084A092A1200E7
:1029B00003AE16D001C007F002C008F003C009F052
:1029C000071E081E091E072A000E08220922000EF3
:1029D0000724016E000E0820026E800E0920036E8F
:1029E00006AE16D004C007F005C008F006C009F016
:1029F000071E081E091E072A000E08220922000EC3
:102A00000724046E000E0820056E800E0920066E55
:102A1000000E011A000E021A800E031A000E041A8C
:102A2000000E051A800E061A0450015C055002586B
:102A300006500358D8B002D0D8901200D8801200A7
:102A4000000E0C6E0AAE06D0096C0A1ED8B00A2A17
:102A5000010E0C6E08AE06D0076C081ED8B0082A0E
:102A6000010E0C1A000E0E6E000E0D6E09500A10AB
:102A7000D8B41CD0010E0B6E04D0D89009360A369B
:102A80000B2A0AAEFAD7D8900D360E360950075CDD
:102A90000A500858D8A005D00950075E0A50085AB5
:102AA0000D80D8900A3209320B2EEDD70C50D8B4D5
:102AB00004D00D6C0E1ED8B00E2A0DC007F00EC04B
:102AC00008F01200000E096E000E0A6E000E0B6E6A
:102AD000000E0C6E0550061007100810D8B42AD04E
:102AE000010E0D6E06D0D89005360636073608362C
:102AF0000D2A08AEF8D7D89009360A360B360C36B0
:102B00000550015C065002580750035808500458FD
:102B1000D8A009D00550015E0650025A0750035A4A
:102B20000850045A0980D89008320732063205321C
:102B30000D2EE1D709C001F00AC002F00BC003F06E
:102B40000CC004F01200000EA6EC17F001C05CF0FF
:102B500002C05DF0660E186EB60E196E400E1A6E4B
:102B60005CC009F05DC00AF00FEC18F009C015F068
:102B70000AC016F00BC017F0F9EC11F015C024F0E4
:102B800016C025F017C026F0000E276E800E286EA6
:102B9000440E296EEDEC12F024C04EF025C04FF02B
:102BA00026C050F0770E406E0F0E416E4EC042F0C0
:102BB0004FC043F050C044F0CCEC07F01200000EC0
:102BC000066E02AE06D0016C021ED8B0022A010EBB
:102BD000066E04AE04D0036C041ED8B0042A035061
:102BE0000410D8B418D0010E056E04D0D890033666
:102BF0000436052A04AEFAD70350015C045002588B
:102C0000D8A004D00350015E0450025AD890043278
:102C10000332052EF1D70650D8B404D0016C021E41
:102C2000D8B0022A01C001F002C002F01200AB8E3F
:102C3000948EAB88949CAC8AAC98AC84A7860FC069
:102C400005F010C006F011C007F012C008F0000E29
:102C5000016E090E026E3D0E036E000E046EC9EC8D
:102C600013F001C013F002C014F003C015F004C04B
:102C700016F013C001F014C002F015C003F016C026
:102C800004F0040E056E000E066E000E076E000EB8
:102C9000086EC9EC13F00104AF6E12000550061067
:102CA00007100810D8B424D0010E096E06D0D890B1
:102CB0000536063607360836092A08AEF8D7055015
:102CC000015C065002580750035808500458D8A019
:102CD00008D00550015E0650025A0750035A0850AA
:102CE000045AD8900832073206320532092EE7D747
:102CF00001C001F002C002F003C003F004C004F000
:102D000012008E0E116E06D0D8900C320B320A32A1
:102D10000932112A000E09140D6E000E0A140E6EEF
:102D2000000E0B140F6EFF0E0C14106E0D500E10D3
:102D30000F101010D8A4E8D709C001F00AC002F0A3
:102D40000BC003F011C004F0000E056E2FEC14F060
:102D500001C009F002C00AF003C00BF012000D0A16
:102D6000546573742053746174656D656E7420547A
:102D7000776F00202020494E4E5420002020200054
:102D80000A0D000A0D694765656B204F44423220E9
:102D90004F70656E20536F757263656420454C4DAE
:102DA00033323720436C6F6E65206669726D7761D0
:052DB00072650D0A0030
:102DB600000E066E000E056E03500410D8B41CD02B
:102DC600010E076E04D0D89003360436072A04AEE7
:102DD600FAD7D890053606360350015C04500258DF
:102DE600D8A005D00350015E0450025A0580D89041
:102DF60004320332072EEDD705C001F006C002F0FB
:102E0600120011C017F012C018F014AE0CD011C089
:102E1600D9FF12C0DAFF2D0EDF6E114A122A136C8B
:102E2600141ED8B0142A11C008F012C009F013C03D
:102E36000AF014C00BF015C00CF016C00DF086ECAD
:102E460014F017C011F018C012F012005E0EF66EE4
:102E56002D0EF76E000EF86E00EE60F010EE57F0D5
:102E66000900F5CFEEFFE550E150FAE100EEB7F0CC
:102E76002A0EEE6AE806FDE100EE4EF0100EEE6A4E
:102E8600E806FDE1000EF86E000160EF13F0035056
:102E96000410D8B418D0010E056E04D0D8900336AD
:102EA6000436052A04AEFAD70350015C04500258D2
:102EB600D8A004D00350015E0450025AD8900432C0
:102EC6000332052EF1D701C001F002C002F0120054
:102ED6003D503E103F10D8B406D0000E3D1A000EED
:102EE6003E1A800E3F1A3AC02EF03BC02FF03CC06F
:102EF60030F03DC031F03EC032F03FC033F0F6EC6A
:102F06000FF02EC03AF02FC03BF030C03CF012005C
:102F160052BE06D0525009E1E10E515CD8B005D040
:102F2600514A522A8178817A1200000E526E000EA2
:102F3600516E817C817E0D0E016EFC0EE82EFED751
:102F4600012EFCD71200036E0D0E036405D0000E91
:102F5600026E000E016E12000344E846FC0BC26EC0
:102F6600C280050EE82EFED7C282C2B2FED7C2903C
:102F7600C3CF01F0C4CF02F012000F015D81928031
:102F860080903F0EC116300EC112C196C190C192FB
:102F9600C194C08EC050C70B0809C06EC050F80B54
:102FA6000409C06EC2801200ACA2FED719C0D9FFB8
:102FB6001AC0DAFFDF503DEC18F019C0D9FF1AC06D
:102FC600DAFF194A1A2ADF50D8B41200EDD70F508B
:102FD6001102F3CF13F0F4CF14F00F501202F35096
:102FE600142610501102F350142613C00FF014C00B
:102FF60010F01200015002100310D8B406D0000ED3
:10300600011A000E021A800E031A01C001F002C056
:1030160002F003C003F0120009C001F00AC002F07A
:10302600036A8E0E046E000E056E2FEC14F001C0BE
:1030360009F002C00AF003C00BF01200036E000E86
:10304600026E3A0E036005D02F0E036402D0010E05
:10305600026E02C001F001301200000E936E000EE7
:10306600946E000E0F015C6F000E0F015B6F7F0EFA
:10307600816E1200016EACAC03D0AC9053B2AC8042
:1030860001C0ADFF1200016E9EA8FED701C0ADFFC4
:02309600120026
:020000040020DA
:08000000FFFFFFFFFFFFFFFF00
:020000040030CA
:0E00000011037F7FFF8991FF0FC00FE00F40BB
:00000001FF
