:040000008DEF15F07B
:100F000000010000000A00000064000000E8030087
:100F10000010270000A086010040420F0080969834
:100F20000000E1F50500CA9A3B00803F0020410027
:100F3000C842007A44401C4650C34724744997185D
:100F40004BBCBE4C6B6E4E03155079AD60F34971CE
:100F500000803FCDCC3DD7233C12833AB7D138C671
:100F60002737388635C0D633CC2B32708930E7DB53
:100F70002EE53C1E42A20D566F6C746167652056CB
:090F800025362E32660D0A000030
:100F8A00420E0001C36F000E0001C46F57EF0CF050
:100F9A00250E0001D819D8B406D00001D851C6ECE4
:100FAA0016F057EF0CF0000E0001CC6F000ECB6F5D
:100FBA00000E0001CA6F000EC96F40C0F6FF41C0A3
:100FCA00F7FF0800F550AEEC16F0D8A035D0000EA9
:100FDA000001CC6F000ECB6FCBC00FF0CCC010F06D
:100FEA00000E126E0A0E116E64EC16F00FC0CBF0F2
:100FFA0010C0CCF0D00E456EFF0E466E40C0F6FF14
:10100A0041C0F7FF0800F550476E486A4550472629
:10101A004650482247500001CB2748500001CC23B4
:10102A00404A412A40C0F6FF41C0F7FF0800F55088
:10103A00AEEC16F0D8B0D0D740C0F6FF41C0F7FFEB
:10104A000800F5502E0AD8A432D00001CA8D404AB1
:10105A00412A000E0001D76F000ED66F1DD0D6C0F0
:10106A000FF0D7C010F0000E126E0A0E116E64EC6B
:10107A0016F040C0F6FF41C0F7FF0800F5500F26F2
:10108A00000E1022D00E0F240001D66FFF0E102082
:10109A000001D76F404A412A40C0F6FF41C0F7FF1E
:1010AA000800F550AEEC16F0D8A00CD0D8D7000E38
:1010BA000001D76F000ED66F0001CA8903D0000164
:1010CA00CA8512D040C0F6FF41C0F7FF404A412A04
:1010DA000800F5CFD8F00001D851000AD8B41200A0
:1010EA00660AD8B4ECD7DED3070E0001CA15D8B405
:1010FA0028D30001CAA905D0000E0001D76F060E39
:10110A00D66FC3C0D9FFC4C0DAFFDECFD3F0DECFBB
:10111A00D4F0DDCFD5F0030E0001C327000EC4239F
:10112A000001D5AF11D0D3C001F0D4C002F0D5C0B0
:10113A0003F08AEC16F001C0D3F002C0D4F003C069
:10114A00D5F0030E0001C913000E0001D26F000E84
:10115A00D16F0001D3510001D4110001D511D8B4C7
:10116A008BD0820E456EFF0E466ED3C047F0D4C0B8
:10117A0048F0D5C049F0D6C04AF0100E05D0D89034
:10118A004A32493248324732E82EF9D74750452485
:10119A000001D16F000E46200001D26F0001D10775
:1011AA00D8A0D207D1C00FF0D2C010F0000E126E34
:1011BA00030E116E64EC16F00FC0D1F010C0D2F01D
:1011CA00D1C007F0D2C008F0000E0A6E0A0E096EEE
:1011DA003AEC14F007C0D1F008C0D2F00001D2AF47
:1011EA0004D00001D107D8A0D2070001D1510008CC
:1011FA0066EC0CF024C0CDF025C0CEF026C0CFF0AE
:10120A00CDC015F0CEC016F0CFC017F0D3C018F07D
:10121A00D4C019F0D5C01AF084EC11F015C0CDF085
:10122A0016C0CEF017C0CFF0CDC001F0CEC002F08C
:10123A00CFC003F0000E046E800E056E3F0E066EE0
:10124A00F2EC13F0D8B005D00001D107D8A0D2072C
:10125A0013D0CDC001F0CEC002F0CFC003F0000E13
:10126A00046E200E056E410E066EF2EC13F0D8A045
:10127A0003D00001D14BD22B0001D7BF08D0000107
:10128A00D7511DE10D0E0001D65DD8B018D0D3C0DC
:10129A002EF0D4C02FF0D5C030F00001D6515EEC4C
:1012AA000EF024C031F025C032F026C033F081ECB4
:1012BA000FF02EC0D3F02FC0D4F030C0D5F000010B
:1012CA00D2BF08D00001D25126E10A0E0001D15D39
:1012DA00D8B021D00001D3510001D4110001D51199
:1012EA00D8B45BD0D3C02BF0D4C02CF0D5C02DF02D
:1012FA00FEEC11F02B502C102D102E10D8A44DD02E
:10130A000001D2BF4AD00001D25105E1020E00010C
:10131A00D15DD8A042D0CDC001F0CEC002F0CFC07E
:10132A0003F0700E046E890E056E400E066EF2EC26
:10133A0013F0D8B003D00001F70E02D00001F80E66
:10134A00D127FF0ED2230001D15166EC0CF024C044
:10135A00CDF025C0CEF026C0CFF0D3C001F0D4C066
:10136A0002F0D5C003F0CDC004F0CEC005F0CFC066
:10137A0006F057EC10F001C0C5F002C0C6F003C079
:10138A00C7F004C0C8F0000E0001D36F000E0001C0
:10139A00D46F000E0001D56F33D0D3C02BF0D4C068
:1013AA002CF0D5C02DF0FEEC11F02BC0C5F02CC0EE
:1013BA00C6F02DC0C7F02EC0C8F0D3C03AF0D4C0D2
:1013CA003BF0D5C03CF0C5C009F0C6C00AF0C7C0A2
:1013DA000BF0C8C00CF05FEC15F009C03DF00AC074
:1013EA003EF00BC03FF0CEEC15F03AC0D3F03BC054
:1013FA00D4F03CC0D5F0000E0001D26F000ED16FC0
:10140A00010E0001D86F0A0E0001D819D8B41ED0F7
:10141A000001D851040D010EF324F66E0F0EF420CC
:10142A00F76E0900F5500001C55D0900F55000018D
:10143A00C6590900F5500001C7590900F5500001C5
:10144A00C859D8A003D00001D82BDDD7D8C045F0A1
:10145A00466A45BE46060001D65145260001D751C7
:10146A0046220001D15145260001D251462245505B
:10147A000001CB5F46500001CC5B0001D651000150
:10148A00D711D8B404D00001CB07D8A0CC07030EDB
:10149A000001C915456E000E0001CA15466E455079
:1014AA004610D8B408D003D0200EC6EC16F00001BE
:1014BA00CB07D8A0CC070001CCBF07D00001CC5184
:1014CA00F3E10001CB05D8B0EFD7030E0001C9152F
:1014DA00456E000E0001CA15466E45504610D8B436
:1014EA004AD02D0EC6EC16F046D0C5C001F0C6C0D3
:1014FA0002F0C7C003F0C8C004F00001D851040DBF
:10150A00010EF324F66E0F0EF420F76E0900F5CFE4
:10151A0005F00900F5CF06F00900F5CF07F00A003B
:10152A00F5CF08F07CEC14F001C0CDF002C0CEF08B
:10153A0003C0CFF004C0D0F0CDC001F0CEC002F09D
:10154A00CFC003F0D0C004F00A0E056E000E066E7E
:10155A00000E076E000E086E2CEC15F001C0CDF0DF
:10156A0002C0CEF003C0CFF004C0D0F00001CD51CC
:10157A00300FC6EC16F00001D8070001D829D8B4FC
:10158A0008D0B3D7300EC6EC16F00001D107D8A0A8
:10159A00D2070001D2BF07D00001D251F3E1000106
:1015AA00D105D8B0EFD70001D7BF0CD00001D75171
:1015BA0005E1090E0001D65DD8A004D0080E00018D
:1015CA00D86F02D0D6C0D8F00001D8510001D65F3A
:1015DA00000E0001D8BFFF0E0001D75B0001D851F1
:1015EA000001D8B403D02E0EC6EC16F00001D85173
:1015FA0066EC0CF024C0C0F025C0C1F026C0C2F0D1
:10160A00D3C018F0D4C019F0D5C01AF0C0C015F074
:10161A00C1C016F0C2C017F084EC11F015C02BF04F
:10162A0016C02CF017C02DF0FEEC11F02BC0C5F03F
:10163A002CC0C6F02DC0C7F02EC0C8F06DD0C5C0F2
:10164A0001F0C6C002F0C7C003F0C8C004F0000130
:10165A00D851040D010EF324F66E0F0EF420F76E26
:10166A000900F5CF05F00900F5CF06F00900F5CF1E
:10167A0007F00A00F5CF08F07CEC14F001C0CDF0B9
:10168A0002C0CEF003C0CFF004C0D0F0CDC001F04C
:10169A00CEC002F0CFC003F0D0C004F00A0E056E2F
:1016AA00000E066E000E076E000E086E2CEC15F08A
:1016BA0001C0CDF002C0CEF003C0CFF004C0D0F01C
:1016CA000001CD51300FC6EC16F0C5C001F0C6C0FE
:1016DA0002F0C7C003F0C8C004F00001D851040DDD
:1016EA00010EF324F66E0F0EF420F76E0900F5CF03
:1016FA0005F00900F5CF06F00900F5CF07F00A005A
:10170A00F5CF08F02CEC15F001C0C5F002C0C6F008
:10171A0003C0C7F004C0C8F00001D8070001D829E7
:10172A00D8B408D08CD7300EC6EC16F00001D60714
:10173A00D8A0D7070001D6510001D711D8B4B2D02A
:10174A00F2D70001D6510001D711D8A40DD000015B
:10175A00C5510001C6110001C7110001C811D8A462
:10176A0003D00001D64BD72B800E0001D8BF7F0EC5
:10177A00456E0001D6510001D85D0001D751800A9B
:10178A004558D8B003D0D6C0D8F016D00001D751EA
:10179A00800A456E0001D8510001D65D800E000115
:1017AA00D8BF7F0E4558D8B007D00001D8510001E4
:1017BA00D66FD76BD6BFD7070001CB510001CC112A
:1017CA00D8B410D0030E0001C915456E000E0001F1
:1017DA00CA15466E45504610D8B404D00001CB074E
:1017EA00D8A0CC070001CAAD1CD00001CB51000122
:1017FA00D65D0001D751800A456E0001CC51800A9E
:10180A004558D8B009D00001D6510001CB5F00017C
:10181A00D7510001CC5B05D0000E0001CC6F000E41
:10182A00CB6F800E0001D8BF7F0E456E0001CB51F1
:10183A000001D85D0001CC51800A4558D8B00BD0C0
:10184A000001D8510001CB5F000E0001D8BFFF0E86
:10185A000001CC5B05D0000E0001CC6F000ECB6FEF
:10186A000001CB510001CC11D8B40DD0200EC6EC2A
:10187A0016F00001CB07D8A0CC070001CB5100011C
:10188A00CC11D8A4F3D7030E0001C915456E000E7A
:10189A000001CA15466E45504610D8B403D02D0E25
:1018AA00C6EC16F040C0F6FF41C0F7FF404A412A95
:1018BA000800F5CFD8F00001D851D8B41200CDEF06
:1018CA0007F02A6E2AAEFBD02A6C2A50800A120F21
:1018DA00D8A091D0000E126E030E116E000E0A6E81
:1018EA000A0E096E000E046E640E036E2A50016E13
:1018FA00026A01BE0206BDEC14F001C007F002C084
:10190A0008F03AEC14F0090E07240F6E000E0820B6
:10191A00106E64EC16F0500E0F24F66E0F0E1020A7
:10192A00F76E0900F5CF18F00900F5CF19F00A0093
:10193A00F5CF1AF0000E0A6E640E096E2A50076E71
:10194A00086A07BE08063AEC14F0120E07240F6E56
:10195A00000E0820106E000E126E030E116E64EC5B
:10196A0016F0500E0F24F66E0F0E1020F76E0900B7
:10197A00F5CF15F00900F5CF16F00A00F5CF17F0EC
:10198A0084EC11F015C027F016C028F017C029F012
:10199A0027C015F028C016F029C017F0000E126EE5
:1019AA00030E116E000E046E0A0E036E2A50016EAB
:1019BA00026A01BE0206BDEC14F001C00FF002C0BB
:1019CA0010F064EC16F0500E0F24F66E0F0E102075
:1019DA00F76E0900F5CF18F00900F5CF19F00A00E3
:1019EA00F5CF1AF084EC11F015C024F016C025F0DA
:1019FA0017C026F012002A50800A750FD8A04DD0C1
:101A0A00000E0A6E0A0E096E2A50076E086A07BE91
:101A1A0008063AEC14F0090E07240F6E000E08208F
:101A2A00106E000E126E030E116E64EC16F0500E5C
:101A3A000F24F66E0F0E1020F76E0900F5CF15F081
:101A4A000900F5CF16F00A00F5CF17F0000E126E56
:101A5A00030E116E000E046E0A0E036E2A50016EFA
:101A6A00026A01BE0206BDEC14F001C00FF002C00A
:101A7A0010F064EC16F0500E0F24F66E0F0E1020C4
:101A8A00F76E0900F5CF18F00900F5CF19F00A0032
:101A9A00F5CF1AF084EC11F0A7D72A50030D500E97
:101AAA00F324F66E0F0EF420F76E0900F5CF24F03A
:101ABA000900F5CF25F00A00F5CF26F012002A50CA
:101ACA00800A120FD8A091D0000E126E030E116E6A
:101ADA00000E0A6E0A0E096E000E046E640E036E84
:101AEA002A50016E026A01BE0206BDEC14F001C062
:101AFA0007F002C008F03AEC14F0090E07240F6E42
:101B0A00000E0820106E64EC16F0290E0F24F66EF3
:101B1A000F0E1020F76E0900F5CF18F00900F5CF67
:101B2A0019F00A00F5CF1AF0000E0A6E640E096E5B
:101B3A002A50076E086A07BE08063AEC14F0120E1D
:101B4A0007240F6E000E0820106E000E126E030E90
:101B5A00116E64EC16F0290E0F24F66E0F0E10208B
:101B6A00F76E0900F5CF15F00900F5CF16F00A0057
:101B7A00F5CF17F084EC11F015C027F016C028F045
:101B8A0017C029F027C015F028C016F029C017F091
:101B9A00000E126E030E116E000E046E0A0E036E14
:101BAA002A50016E026A01BE0206BDEC14F001C0A1
:101BBA000FF002C010F064EC16F0290E0F24F66E36
:101BCA000F0E1020F76E0900F5CF18F00900F5CFB7
:101BDA0019F00A00F5CF1AF084EC11F015C024F0C0
:101BEA0016C025F017C026F012002A50800A750F79
:101BFA00D8A04DD0000E0A6E0A0E096E2A50076E42
:101C0A00086A07BE08063AEC14F0090E07240F6E9C
:101C1A00000E0820106E000E126E030E116E64EC98
:101C2A0016F0290E0F24F66E0F0E1020F76E09001B
:101C3A00F5CF15F00900F5CF16F00A00F5CF17F029
:101C4A00000E126E030E116E000E046E0A0E036E63
:101C5A002A50016E026A01BE0206BDEC14F001C0F0
:101C6A000FF002C010F064EC16F0290E0F24F66E85
:101C7A000F0E1020F76E0900F5CF18F00900F5CF06
:101C8A0019F00A00F5CF1AF084EC11F0A7D72A5000
:101C9A00030D290EF324F66E0F0EF420F76E0900D9
:101CAA00F5CF24F00900F5CF25F00A00F5CF26F08C
:101CBA0012002D6E6D0E2D649FD0000E126E030E53
:101CCA00116E000E0A6E0A0E096E000E046E640E84
:101CDA00036E2DC001F0026ABDEC14F001C007F0DA
:101CEA0002C008F03AEC14F0090E07240F6E000E39
:101CFA000820106E64EC16F0500E0F24F66E0F0ECC
:101D0A001020F76E0900F5CF18F00900F5CF19F089
:101D1A000A00F5CF1AF0000E0A6E640E096E2DC085
:101D2A0007F0086A3AEC14F0120E07240F6E000E40
:101D3A000820106E000E126E030E116E64EC16F07F
:101D4A00500E0F24F66E0F0E1020F76E0900F5CF15
:101D5A0015F00900F5CF16F00A00F5CF17F084EC5C
:101D6A0011F015C02AF016C02BF017C02CF0000E87
:101D7A00126E030E116E000E046E0A0E036E2DC053
:101D8A0001F0026ABDEC14F001C00FF002C010F0BD
:101D9A0064EC16F0500E0F24F66E0F0E1020F76E3C
:101DAA000900F5CF18F00900F5CF19F00A00F5CFB0
:101DBA001AF02AC015F02BC016F02CC017F084ECCC
:101DCA0011F015C027F016C028F017C029F027C057
:101DDA0015F028C016F029C017F0000E186E000E74
:101DEA00196E3F0E1A6E84EC11F015C024F016C05D
:101DFA0025F017C026F012000A0E2D645DD0000EE1
:101E0A00126E030E116E000E046E0A0E036E2DC0C2
:101E1A0001F0026ABDEC14F001C00FF002C010F02C
:101E2A0064EC16F0500E0F24F66E0F0E1020F76EAB
:101E3A000900F5CF18F00900F5CF19F00A00F5CF1F
:101E4A001AF0000E0A6E0A0E096E2DC007F0086A13
:101E5A003AEC14F0090E07240F6E000E0820106EDB
:101E6A00000E126E030E116E64EC16F0500E0F2463
:101E7A00F66E0F0E1020F76E0900F5CF15F0090067
:101E8A00F5CF16F00A00F5CF17F084EC11F015C063
:101E9A002AF016C02BF017C02CF02AC015F02BC060
:101EAA0016F02CC017F0000E186E000E196E3F0EB9
:101EBA001A6E84EC11F099D72D50030D500EF324AD
:101ECA00F66E0F0EF420F76E0900F5CF15F0090033
:101EDA00F5CF16F00A00F5CF17F0000E186E000EB7
:101EEA00196E3F0E1A6E84EC11F015C024F016C05C
:101EFA0025F017C026F0120030C034F0356A366A71
:101F0A002F34343601E335803450396E33C034F01F
:101F1A00356A366A3234343601E335803450386EE5
:101F2A003950D8B40BD03850395CD8B00ED03950AB
:101F3A0000083824346E180E346407D031C02EF0ED
:101F4A0032C02FF033C030F012003850D8B40BD062
:101F5A003950385CD8B00ED0385000083924346E65
:101F6A00180E346407D02EC02EF02FC02FF030C0C8
:101F7A0030F01200060E376E30BE378E33BE378C05
:101F8A002F8EFF0E2E16FF0E2F16000E3016328ED3
:101F9A00FF0E3116FF0E3216000E33163850395C1A
:101FAA00D8B01BD0D890313632363336380639504D
:101FBA003818D8B40DD0370637C034F0070E3416A7
:101FCA00D8B406D0EFD7D89030322F322E32392AF1
:101FDA0038503918D8B41FD0F6D73950385CD8B031
:101FEA001AD0D8902E362F3630363906395038184E
:101FFA00D8B40DD0370637C034F0070E3416D8B42B
:10200A0006D0EFD7D890333232323132382A3850AC
:10201A003918D8A4F7D737AE0CD0FF0E2E1AFF0EF8
:10202A002F1AFF0E301A010E2E26000E2F22000E36
:10203A00302237AC0CD0FF0E311AFF0E321AFF0EC7
:10204A00331A010E3126000E3222000E3322000E00
:10205A00376E2E5031262F5032223050332233AE73
:10206A000ED0FF0E311AFF0E321AFF0E331A010E6E
:10207A003126000E3222000E3322010E376E31C095
:10208A0001F032C002F033C003F039C004F037C0A7
:10209A0005F051EC13F001C02EF002C02FF003C07E
:1020AA0030F0120003C007F0086A096A02340736E2
:1020BA0001E3088007500F6E0F50D8A409D0000E14
:1020CA00016E000E026E000E036E000E046E120008
:1020DA0006C007F0086A096A0534073601E3088072
:1020EA0007500E6E0E50D8A409D0000E016E000ED5
:1020FA00026E000E036E000E046E1200028EFF0EB8
:10210A000116FF0E0216000E0316058EFF0E0416A8
:10211A00FF0E0516000E0616000E0A6E000E0B6E56
:10212A00000E0C6E000E0D6E7F0E0F5E0E50980F95
:10213A000F5E180E0E6ED8900A360B360C360D3618
:10214A000450015C0550025806500358D8A007D025
:10215A000450015E0550025A0650035A0A80D8906C
:10216A000136023603360E2EE6D70FAE16D00F50C2
:10217A00800A970FD8B009D0000E016E000E026EC9
:10218A00000E036E000E046E1200D8900D320C324F
:10219A000B320A320F3EF9D715D0170E0F640FD043
:1021AA00000E016E000E026E000E036E000E046E2B
:1021BA001200D8900A360B360C360D360F060F5021
:1021CA00D8A4F7D70AC001F00BC002F00CC003F084
:1021DA000DC004F01200033404340C6E0C50D8A461
:1021EA0009D0000E016E000E026E000E036E000E84
:1021FA00046E1200063407340B6E0B50D8A409D0B3
:10220A00000E016E000E026E000E036E000E046ECA
:10221A001200038EFF0E0116FF0E0216FF0E0316A2
:10222A00000E0416068EFF0E0416FF0E0516FF0E8C
:10223A000616000E0716000E076E000E086E000E38
:10224A00096E000E0A6E7F0E0C5E0B50A00F0C5E1C
:10225A00200E0B6ED8900736083609360A36045017
:10226A00015C055002580650035807500458D8A07C
:10227A0009D00450015E0550025A0650035A07500D
:10228A00045A0780D89001360236033604360B2EDC
:10229A00E1D70CAE16D00C50800A9F0FD8B009D0E7
:1022AA00000E016E000E026E000E036E000E046E2A
:1022BA001200D8900A320932083207320C3EF9D796
:1022CA0015D01F0E0C640FD0000E016E000E026EA8
:1022DA00000E036E000E046E1200D8900736083600
:1022EA0009360A360C060C50D8A4F7D707C001F0F5
:1022FA0008C002F009C003F00AC004F0120017C0B7
:10230A001BF01C6A1D6A16341B3601E31C801B5025
:10231A001E6E1E50D8A407D0000E156E000E166E43
:10232A00000E176E12001AC01BF01C6A1D6A1934BF
:10233A001B3601E31C801B50236E2350D8A407D000
:10234A00000E156E000E166E000E176E1200235048
:10235A007B0F1E2617C023F01A50231A800E23164D
:10236A00168E198EFF0E1816FF0E1916000E1A1663
:10237A00000E1F6E000E206E000E216E070E226EDA
:10238A0015A006D018501F26195020221A502122B3
:10239A00D890173216321532D890183619361A369E
:1023AA00222EEED7090E226E15A006D018501F262F
:1023BA00195020221A502122D8901732163215327B
:1023CA00D890213220321F32222EEED71FC001F0C0
:1023DA0020C002F021C003F01EC004F023C005F0A3
:1023EA0051EC13F001C015F002C016F003C017F04B
:1023FA0012002DC02FF0306A316A2C342F3601E3D7
:10240A0030802F50396E3950D8A409D0000E2B6E67
:10241A00000E2C6E000E2D6E000E2E6E1200170E80
:10242A002F6E2BC030F02CC031F02DC032F02F2887
:10243A00336E04D0D890323231323032332EFAD75A
:10244A003050346E2C8EFF0E2B16FF0E2C16000EFB
:10245A002D162B50356E2C50366E2D50376E386A2D
:10246A008E0E395E39AE16D03950800A8F0FD8B029
:10247A0009D0000E2B6E000E2C6E000E2D6E000E73
:10248A002E6E1200D8903832373236323532393E13
:10249A00F9D715D0170E39640FD0000E2B6E000E27
:1024AA002C6E000E2D6E000E2E6E1200D890353650
:1024BA0036363736383639063950D8A4F7D7345035
:1024CA00D8B408D0381E371E361E356C000E362298
:1024DA003722382235C02BF036C02CF037C02DF009
:1024EA0038C02EF0120026C02AF02B6A2C6A253436
:1024FA002A3601E32B802A50316E3150D8A407D0F6
:10250A00000E246E000E256E000E266E120029C0E3
:10251A002AF02B6A2C6A28342A3601E32B802A50A7
:10252A00326E3250D8A407D0000E246E000E256EEB
:10253A00000E266E1200000E2E6E000E2F6E000E7A
:10254A00306E3250890F315E26C032F02950321A6D
:10255A00800E3216258EFF0E2416FF0E2516000E4B
:10256A002616288EFF0E2716FF0E2816000E29168D
:10257A00180E2D6ED8902E362F3630362750245C02
:10258A002850255829502658D8A007D02750245E0D
:10259A002850255A2950265A2E80D8902436253676
:1025AA0026362D2EE7D72EC001F02FC002F030C0FC
:1025BA0003F031C004F032C005F051EC13F001C051
:1025CA0024F002C025F003C026F01200000E0A6EA5
:1025DA0008AE0AD0081E071E061E056C000E06224B
:1025EA0007220822010E0A6E04AE0AD0041E031E38
:1025FA00021E016C000E022203220422010E0A1A94
:10260A00000E0B6E000E0C6E000E0D6E000E0E6E9E
:10261A000550061007100810D8B42AD0010E096E0A
:10262A0006D0D8900536063607360836092A08AE87
:10263A00F8D7D8900B360C360D360E360550015C9D
:10264A00065002580750035808500458D8A009D019
:10265A000550015E0650025A0750035A0850045AA0
:10266A000B80D8900832073206320532092EE1D79C
:10267A000A50D8B408D00E1E0D1E0C1E0B6C000E8C
:10268A000C220D220E220BC001F00CC002F00DC06C
:10269A0003F00EC004F012000450D8B405D0015063
:1026AA0002100310D8A40CD0000E016E000E026EA8
:1026BA00000E036E1200042AD8900332023201324D
:1026CA00000E0114066E000E0214076EFE0E0314AD
:1026DA00086E065007100810D8B40CD0ECD7042A9C
:1026EA00010E0126000E0222000E0322D8900332A8
:1026FA0002320132000E0114066E000E0214076E39
:10270A00FF0E0314086E065007100810D8B406D03E
:10271A00E6D70406D89001360236033602BE03D045
:10272A00020E0460F6D704A0029ED8900432045028
:10273A0003120550D8A4038E01C001F002C002F0B2
:10274A0003C003F0120051BE05D0515006E15028D3
:10275A00D8B003D0504A512A1200000E516E000E12
:10276A00506E000E0DEC16F001C05DF002C05EF076
:10277A00660E186EB60E196E400E1A6E5DC009F01E
:10278A005EC00AF09CEC16F009C015F00AC016F0FB
:10279A000BC017F084EC11F015C024F016C025F018
:1027AA0017C026F0000E276E800E286E440E296E82
:1027BA0078EC12F024C04DF025C04EF026C04FF040
:1027CA00770E406E0F0E416E4DC042F04EC043F080
:1027DA004FC044F0C5EC07F0120003AE16D001C09A
:1027EA0007F002C008F003C009F0071E081E091E00
:1027FA00072A000E08220922000E0724016E000E85
:10280A000820026E800E0920036E06AE16D004C0A0
:10281A0007F005C008F006C009F0071E081E091EC9
:10282A00072A000E08220922000E0724046E000E51
:10283A000820056E800E0920066E000E011A000E91
:10284A00021A800E031A000E041A000E051A800ED0
:10285A00061A0450015C0550025806500358D8B0B5
:10286A0002D0D8901200D8801200000E0C6E0AAE68
:10287A0006D0096C0A1ED8B00A2A010E0C6E08AEE0
:10288A0006D0076C081ED8B0082A010E0C1A000ED2
:10289A000E6E000E0D6E09500A10D8B41CD0010E2F
:1028AA000B6E04D0D89009360A360B2A0AAEFAD72C
:1028BA00D8900D360E360950075C0A500858D8A031
:1028CA0005D00950075E0A50085A0D80D8900A327E
:1028DA0009320B2EEDD70C50D8B404D00D6C0E1E55
:1028EA00D8B00E2A0DC007F00EC008F01200000E74
:1028FA00096E000E0A6E000E0B6E000E0C6E05506D
:10290A00061007100810D8B42AD0010E0D6E06D092
:10291A00D89005360636073608360D2A08AEF8D797
:10292A00D89009360A360B360C360550015C06502B
:10293A0002580750035808500458D8A009D0055027
:10294A00015E0650025A0750035A0850045A098079
:10295A00D89008320732063205320D2EE1D709C067
:10296A0001F00AC002F00BC003F00CC004F0120020
:10297A00000E066E02AE06D0016C021ED8B0022A04
:10298A00010E066E04AE04D0036C041ED8B0042AED
:10299A0003500410D8B418D0010E056E04D0D89094
:1029AA0003360436052A04AEFAD70350015C0450F4
:1029BA000258D8A004D00350015E0450025AD8909D
:1029CA0004320332052EF1D70650D8B404D0016C74
:1029DA00021ED8B0022A01C001F002C002F01200A1
:1029EA00AB8E948EAB88949CAC8AAC98AC84A78648
:1029FA000FC005F010C006F011C007F012C008F0B1
:102A0A00000E016E090E026E3D0E036E000E046E7C
:102A1A00EBEC12F001C013F002C014F003C015F081
:102A2A0004C016F013C001F014C002F015C003F080
:102A3A0016C004F0040E056E000E066E000E076E38
:102A4A00000E086EEBEC12F00104AF6E1200055096
:102A5A00061007100810D8B424D0010E096E06D04B
:102A6A00D8900536063607360836092A08AEF8D74A
:102A7A000550015C06500258075003580850045884
:102A8A00D8A008D00550015E0650025A0750035AD2
:102A9A000850045AD8900832073206320532092EF5
:102AAA00E7D701C001F002C002F003C003F004C07E
:102ABA0004F012008E0E116E06D0D8900C320B3232
:102ACA000A320932112A000E09140D6E000E0A1478
:102ADA000E6E000E0B140F6EFF0E0C14106E0D50BE
:102AEA000E100F101010D8A4E8D709C001F00AC0C0
:102AFA0002F00BC003F011C004F0000E056E51EC99
:102B0A0013F001C009F002C00AF003C00BF0120072
:102B1A005C0EF66E2B0EF76E000EF86E00EE60F08D
:102B2A0010EE40F00900F5CFEEFFE550E150FAE172
:102B3A0000EEA0F0200EEE6AE806FDE100EE4DF090
:102B4A00120EEE6AE806FDE1000EF86E0001EEEFE5
:102B5A0015F0202020494E542000202020000A0D84
:102B6A00000D0A694765656B204F444232204F7059
:102B7A00656E20536F757263656420454C4D333220
:102B8A003720436C6F6E65206669726D7761726576
:102B9A0020003D503E103F10D8B406D0000E3D1A1A
:102BAA00000E3E1A800E3F1A3AC02EF03BC02FF09C
:102BBA003CC030F03DC031F03EC032F03FC033F08F
:102BCA0081EC0FF02EC03AF02FC03BF030C03CF041
:102BDA0012003EEC16F0000E4C6E000E4B6E27EC07
:102BEA0016F0000E0F6E960E106E000E116E000E8D
:102BFA00126EF5EC14F06F0E026E000E036E51ECBD
:102C0A0016F09EA8FED7A8EC13F077EC16F0F9D7C9
:102C1A00036E0D0E036405D0000E026E000E016EE7
:102C2A0012000344E846FC0BC26EC28000D000D0FA
:102C3A0000F0C282C2B2FED7C290C3CF01F0C4CFA5
:102C4A0002F012000F015D81928080903F0EC11642
:102C5A00300EC112C196C190C192C194C08EC050AB
:102C6A00C70B0809C06EC050F80B0409C06EC280B9
:102C7A001200000E936E000E946E000E0F015C6F30
:102C8A00000E0F015B6F8180818281848186818839
:102C9A00818A818C818E1200ACA2FED702C0D9FF34
:102CAA0003C0DAFFDF50BDEC16F002C0D9FF03C043
:102CBA00DAFF024A032ADF50D8B41200EDD70F50C8
:102CCA001102F3CF13F0F4CF14F00F501202F350A5
:102CDA00142610501102F350142613C00FF014C01A
:102CEA0010F0120053BE05D0535006E15228D8B056
:102CFA0003D0524A532A1200000E536E000E526E2F
:102D0A008178817A817C817E120001500210031041
:102D1A00D8B406D0000E011A000E021A800E031A49
:102D2A0001C001F002C002F003C003F0120009C0A2
:102D3A0001F00AC002F0036A8E0E046E000E056EE0
:102D4A0051EC13F001C009F002C00AF003C00BF005
:102D5A001200036E000E026E3A0E036005D02F0EAB
:102D6A00036402D0010E026E02C001F001301200AB
:102D7A00016EACAC03D0AC9054B2AC8001C0ADFFD4
:0E2D8A001200016E9EA8FED701C0ADFF120020
:020000040020DA
:08000000FFFFFFFFFFFFFFFF00
:020000040030CA
:0E00000011017F7FFF8991FF0FC00FE00F40BD
:00000001FF
